:020000040800F2
:10000000000200206D04000809040008C503000870
:100010001904000829040008390400080000000041
:10002000000000000000000000000000A90300081C
:1000300049040008000000008D030008590400086E
:1000400025010008250100082501000825010008F8
:100050002501000825010008890F0008890F000804
:10006000890F0008890F0008890F00082501000882
:1000700025010008250100082501000825010008C8
:1000800025010008250100082501000825010008B8
:10009000250100082501000825010008890F000836
:1000A0002501000825010008250100082501000898
:1000B0002501000825010008250100082501000888
:1000C0002501000825010008250100082501000878
:1000D00025010008890E00087D0E0008830E000827
:1000E000890F0008250100082501000825010008E6
:1000F00025010008000000009110000825010008FB
:100100002501000825010008250100082501000837
:100110002501000825010008250100082501000827
:100120002501000800F098B900F0A8BA7047000057
:1001300070B50C46064600F091FA094B094A1D6855
:100140002919914202D8084A914204D20C23336003
:100150004FF0FF3500E0196000F088FA284670BDC6
:100160000002002000400120640B002010461946C8
:1001700000F090BA1046194600F094BA13230360B9
:100180004FF0FF307047132303604FF0FF3070478C
:10019000132303604FF0FF30704702294FF0000334
:1001A00003608CBF0020012070470000114B70B528
:1001B00000241C60104B114D18682E6800F09CF84C
:1001C0000F4B53F820301B68A3F1080296420FD062
:1001D00026B13179092904BF0A213171092103F8B7
:1001E000041C33F8021C074B2A601980012070BDE3
:1001F000204670BD880200205C030020140300200C
:100200001803002010030020082930B5037919D9FC
:10021000082B32D842791A4B00F1080453F82250C7
:100220002DB12D68856053F822502C6000E0846069
:1002300043F822404279134C012303FA02F2236867
:10024000134319E0082B18D945790D4B53F8252095
:100250003AB11468A24213BF2468002243F8252053
:100260001460427953F822303BB9064C012303FA5B
:1002700002F2236823EA02032360017130BD00BF4C
:10028000180300205C03002008B50A4B1B685A794C
:100290001B79082B01D982420AD900F0EAF918B17A
:1002A000054B01221A6008BDBDE8084000F066B8A1
:1002B00008BD00BF140300208802002008B500F02C
:1002C000CDF9094B094A1B8800241BB242F8234090
:1002D000074A084D13682868013B21461360FFF761
:1002E00093FF2C6000F046F8100300208C020020E1
:1002F00058030020140300200023C20702D4400842
:100300000133FAE718467047134423F0030310B58E
:100310004FF077321C1F43F8042C620742BFA3F151
:1003200008044FF0883243F8082C22464FF08073BF
:1003300004E909000E4B44F80C3C002344F8103C3F
:10034000032344F8143C022344F8183C012344F8E6
:100350001C3C42F8201D0B2342F8043D013B032BBB
:10036000FAD120466FF0020340F8443D10BD00BFB3
:10037000BD02000800F076F901DFFEE7024A53688B
:1003800043F080535360704700ED00E0EFF30980C5
:1003900020E9F00F40F804ED02490968086000F018
:1003A00003F8000014030020FFF700FF0448006872
:1003B000016801C9B1E8F00F81F309880047000026
:1003C000140300200D490E4A0E4B6846904203D894
:1003D000984201D9002102E009468D4601210420FE
:1003E0007246024202D1EFF3088001E0EFF3098088
:1003F0002DE9F00F6B4600F06FF800BF00020020FF
:10040000004001205801002008B50420014900F0F7
:10041000C7FA00BF4222000808B50620014900F0D3
:10042000BFFA00BF4E22000808B50720014900F0BE
:10043000B7FA00BF6122000808B50820014900F0A2
:10044000AFFA00BF7322000808B50920014900F087
:10045000A7FA00BF8722000808B50A20014900F06A
:100460009FFA00BF992200087047704708B5FFF750
:10047000FBFF6A46114B934203D2114943F8041B18
:10048000F9E7104A104B11498B4204D252F8041F6D
:1004900043F8041BF7E70E4B0E4A934203D20022A7
:1004A00043F8042BF8E7FFF7E0FF00F075FA00F0DF
:1004B000CFFFBDE8084000F0A5BA00BF0000002053
:1004C000FEE7FEE7802700080002002088020020E7
:1004D00088020020640B00202DE9F04F9946494B1B
:1004E00092469A6B8FB003925A6B9F6A0492DA6AB3
:1004F000044605921A6BDB6B06920793424B8846C3
:100500001A68424B9A4202D0414801F05FF8B8F1B4
:10051000000F05D03F48002501F058F82E4626E090
:10052000E068D4F81CB0089020691BF4007F0990A3
:10053000606994E80E000A903748A6690CBF04F180
:10054000200504F124050D930C920B9101F03EF867
:10055000089B0BA900930EC9304800F0A7FFCDF807
:1005600000B02F4809990A9A334600F09FFF2D48A2
:1005700001F02CF839462C4800F098FF05992B48DB
:1005800000F094FF06992A4800F090FF2948079947
:1005900000F08CFF3A0403D52748039900F086FF4A
:1005A0003B0603D52548049900F080FF244801F05C
:1005B0000DF82448514600F079FFB8F1000F1BD127
:1005C000214801F003F83146204800F06FFF6946EA
:1005D0001F4BC91A03D51F48494200F067FF204648
:1005E0008268C36801698C4641698E46AD464946BA
:1005F00091E8F00F4168006801BE0520164900F03F
:10060000CFF900BF00ED00E000000020FEE7FEE7AC
:10061000A7220008BD220008EC22000807230008DA
:1006200044230008822300088B2300089B23000832
:10063000AB230008BB230008CB230008DB23000802
:10064000EB230008F02300080224000833240008EC
:10065000580100205B24000888240008EFF3108074
:1006600072B6704762B6EFF31080704780F310885F
:100670007047EFF30580C0B27047000000204FF4D0
:10068000E131024A024B00F071BB00BFA10C00082F
:100690000402002003460A460148194600F00BBB3D
:1006A00004020020034610B50C46002019462246DD
:1006B00000F0C2FB204610BD002000F0A9BC0000E5
:1006C000034B0246186810B9014600F081BC704720
:1006D000A403002010B5094A13685BB19C688168C7
:1006E0008C4202D21A461B68F7E703D15C68416866
:1006F0008C42F7D90360106010BD00BFB00300202A
:10070000F0B51E4E1E4D33680020013333601D4B83
:10071000B6461A6818602B681B4C1946226021B136
:10072000DEF800708E68BE4202D9296018B9F0BDAB
:1007300008460968F3E700210160E2B133B151686E
:100740005868814294BF1146194600E01146084698
:1007500012681B680AB903600BE00BB9026008E07D
:1007600055685E68B54294BF15461D46056028462B
:10077000EEE72160F0BD2360F0BD00BFA8030020BC
:10078000B0030020A0030020AC030020F8B52C4FDC
:100790002C4C01233B60236833B9FFF7B1FFFFF70F
:1007A0008BFF0130FBD02FE0FFF786FF054610E0FE
:1007B000864205D923685E68FFF77EFFA842F7D21C
:1007C00023681A681869226000225A609A60DA6801
:1007D0009047236823B9FFF76FFF85420BD911E0DB
:1007E0005E68FFF769FFA842E4D38642E2D9361A71
:1007F000132EF0D8DEE7236843B9FFF75DFFA84268
:1008000006460BD2FFF77CFF0025E2E75E68FFF7A4
:1008100053FF063E14308642DBD309E010F1140F7B
:1008200004D3FFF749FFB042FBD2EBE74FF0FF36AE
:1008300000233B603046BDE8F840FFF741BF00BFF2
:10084000A4030020AC030020144B1A6882420AD192
:1008500012681A6012B15068063801E04FF0FF309C
:10086000FFF72EBF13461A6822B18242FAD10268FE
:100870001A6070470A4A13681BB1834203D01A46B4
:10088000F9E7084A05E00368136070478342FAD02D
:100890001A461368002BF9D1704700BFAC03002043
:1008A000A0030020B003002008B50020034605493E
:1008B000054A00F0C1FBBDE808404FF0FF30FFF7EC
:1008C000FFBE00BF40420F008D070008F8B5044688
:1008D0000D46FFF7F1FE00238542064623600FD345
:1008E000EB1E83420CD20335FFF7E6FEA842FBD88D
:1008F000FFF7E2FEA842FBD3E368206998473EE099
:10090000FFF7ACFE63680746002B34D1A368002BC9
:1009100031D11C4BB5421A681B6838BF0132A26046
:10092000A26865609A4203D92046FFF7D3FE1EE015
:10093000AE4202D2144B19460EE0144A136823B19A
:100940005968A94201D81A46F8E7236014600EE0FE
:100950005068A84203D813461A68002AF8D12260CA
:100960001C600B68A34202D1A81FFFF7A9FE3846FE
:10097000FFF77CFE03E02046FFF766FFC9E7002093
:10098000F8BD00BFA8030020AC030020A003002096
:1009900008B5FFF763FEFEE700F01EB970470000E0
:1009A00008B50C4B0C461A6872B9012203281A606C
:1009B00003D17146084800F079FD0848214600F04F
:1009C00075FD074800F072FDFFF748FEFFF7E6FFF0
:1009D000FFF7DEFFB4030020AD240008B1240008B7
:1009E000CD24000808B500F0EDFB034800F05EFDE3
:1009F00000F0A2FB002008BDDB24000808B500F0D1
:100A0000D9F8FCE71FB5FFF729FE0E4B0024009331
:100A10000D4B01941B684FF4807102930F220C233D
:100A20000A4800F04DF80A4B4FF4C0618DE81800F9
:100A3000084B07221B68084802930C2300F040F87B
:100A4000FFF798FCFD09000818020020B8030020F9
:100A5000E50900081C020020B804002008B5FFF7D3
:100A6000FDFD094B1B681A79082A07D95A79074BEB
:100A700053F8221011B1096843F82210FFF7F6FD70
:100A8000BDE80840FFF77ABC1403002018030020DB
:100A900038B50B79082B03D903200849FFF780FFED
:100AA0004C7901F1080203682BB113F8035CA542ED
:100AB00001D81846F7E78B60026038BD9B24000818
:100AC0000F2A2DE9F74F8146884616461F4666D8FD
:100AD00010F003050FBF0D46C5F10405A9444D1BD9
:100AE000303D25F0030C190709EB0C0405D54B46E6
:100AF000A34204D21B600433FAE7C9F80090CDF892
:100B000004C0FFF7ABFD8346DDF804C00123274A8C
:100B10001FFA83FA52F8235035BB42F823400C9851
:100B20004A466346A4F806A00D99FFF7EDFB0E9B1D
:100B30001F4AA3624FF0FF33E36113682060013363
:100B40001360FA07C4F82490C4F82C8066712571EC
:100B5000A560E56025616561A56125620DD520462A
:100B60000121FFF751FB15E00133212BCFD158466E
:100B7000FFF77CFD4FF6757013E020460A21FFF762
:100B800043FB7B0706D45846FFF770FD3046FFF75E
:100B90007BFB02E05846FFF769FD504601E04FF647
:100BA000EA7000B203B0BDE8F08F00BF8C020020F5
:100BB00058030020074A08B5136923F004031361A2
:100BC000FFF74CFDBFF34F8F30BFBDE80840FFF784
:100BD0004DBD00BF00ED00E008B500F04BFB2C4B15
:100BE0001A6842F480721A609A6822F47D029A6050
:100BF0001968284A0A401A600022DA601A6842F02E
:100C000001021A601A689207FCD5234B00201A686B
:100C10004FF0805142F004021A601A6842F002025A
:100C20001A601A6842F001021A6000F063F81B4B68
:100C30004FF400621A605A68D006FCD4144B9A68CC
:100C40009A609A689A609A689A609A6822F47D021B
:100C50009A609A6842F488029A601A6842F0807238
:100C60001A6019680A4A8901FBD5936823F00303C7
:100C70009360936843F003039360054B9B6803F014
:100C80000C030C2BF9D1BDE8084000F054BA00BFAA
:100C900000380240FEFFFAEE003C024000700040C7
:100CA00038B50446043000F031FA0546204600F01D
:100CB000BBFA284638BD70B504460E461546201DC1
:100CC00031462A4600F00CFA20B92046012100F0F6
:100CD0007BFAF4E770BD0000004870470048E80167
:100CE000024B1B5C02485843704700BF3325000885
:100CF0000048E80101280CD006D302280DD1084A8B
:100D0000D3691943D16108E0054A536A1943516216
:100D100003E0034A136A19431162BFF34F8F704710
:100D20000038024038B5142343430D4AD5582C8867
:100D3000A4B2A20608D50B4BA98803EBC002C9B226
:100D400053F8303050689847230748BFAB88064BAC
:100D50001B681BB1BDE83840FFF780BE38BD00BF3F
:100D600038250008B80A00208802002002282DE952
:100D7000F04780460D46174603D903202A49FFF75E
:100D80000FFEDFF8B090142404FB0094274AE668B5
:100D900042F8307002EBC00253600121304600F08F
:100DA00076F8304600F0E8F83046617C00F0A9F8AB
:100DB0004E464FB1D4F808900021484600F067F83D
:100DC0004846217C00F09DF8142303FB08F806EB4D
:100DD000080393F812A05968504603F11009FFF771
:100DE00089FF56F808400023A38150462382A3823E
:100DF000FFF772FFB0FBF5F080B2208177B199F870
:100E0000033001215AB203F01F0301FA03F308492A
:100E1000520941F8223042F22C0301E042F2080369
:100E2000A3810020BDE8F0879B240008B80A0020B9
:100E300000E100E038250008022838B501D80A444E
:100E400009E003200B49FFF7ABFD1C882406FCD505
:100E500011F8014B9C809142074D4FF0140303D0D1
:100E600003FB00F42B59F0E74343EA5813885B0671
:100E7000FCD538BD9B240008382500080020FFF76A
:100E800051BF0120FFF74EBF0220FFF74BBFF8B55F
:100E9000C0F38322012720F00F0400F00F060D4657
:100EA000022007FA02F1FFF725FF06FA07F00321F7
:100EB00081406FEA010E2268B7400EEA020222600A
:100EC000236805F0030282401A432260E3680EEAB9
:100ED0000303E360E268C5F3810383401343E360E7
:100EE000A288C5F3001592B222EA0703A380A38863
:100EF000B5401D43ADB2A580A36800201943A16091
:100F0000F8BD00F00F0220F00F0370B51D68560009
:100F10000324B44025EA04041C601D680224072A47
:100F200004FA06F444EA050494BF002201221C607E
:100F300000F0070003EB82031C6A80000F2282404E
:100F400024EA02021A621A6A81400A431A6270BDD8
:100F500010B50446C0F38323012199400220FFF716
:100F6000C9FE24F00F0104F00F040A686400032393
:100F7000A34013430B6010BD20F00F02012300F0CB
:100F80000F008340936170470E4B70B51D465A6940
:100F90001E68002416400123A340334207D06B6132
:100FA000094B03EBC402506853F8343098470134BE
:100FB000102CF0D1054B1B681BB1BDE87040FFF74A
:100FC0004DBD70BD00040140D00A00208802002001
:100FD000032910B517DC0D4B00011C181B58606865
:100FE000024001F10C0003EB80004260188A0222EB
:100FF00080B28A4020EA02011982998900200A43BE
:1010000092B29A8110BD4FF0FF3010BD74250008D8
:10101000024B00011B58586A704700BF7425000836
:10102000044B00011A5813889BB243F0010313804C
:10103000704700BF7425000870B50D460446F0B92E
:101040001049114E81E80C000821FFF753FE4FF0C4
:10105000FF3334802046B480F362FFF741FEB0FBDB
:10106000F5F0013880B201233085B382074B4FF48D
:10107000804220465A60FFF7D3FF204670BD4FF0F4
:10108000FF3070BD500B0020000C004000E100E07C
:10109000104A38B5138A95890024ADB21D40022349
:1010A000A3402B420AD00B498A8992B222EA030359
:1010B0008B81094B21461A68586890470134042CEB
:1010C000EDD1064B1B681BB1BDE83840FFF7C6BC2D
:1010D00038BD00BF000C0040500B002088020020EB
:1010E000134670B501397BB18568C468A5420BD041
:1010F00084680668651C85604568013B013D2C409D
:10110000345D01F8014FEEE7D01A70BDC36830B509
:10111000846842681B1B93421FBFC368046802F1C6
:10112000FF325D1C1FBF1340C560E154002008BFA3
:101130004FF0FF3030BD704713B50020FFF768FF58
:101140000190194800F042FA184800F03FFA0024D4
:10115000204600F0BDF800281EDB2146144801346B
:1011600000F0A4F9062CF3D100242046002100F061
:10117000E9F8021E04DA21460E4800F097F903E070
:101180000D48214600F092F90134062CEDD101A85A
:101190000A4900F025F9E7E72146094800F086F9F9
:1011A000012002B010BD00BF84250008A62500085C
:1011B0004E26000875260008A526000840420F00AC
:1011C00027260008FFF770BB70B505460C46FFF7F1
:1011D00045FA2B6806462BB94FF0FF332B60FFF71B
:1011E00045FA18E0CCB10F4B02211C682046FFF7EE
:1011F0000BF82B68013305D104F108032B600023A1
:10120000A36003E028462146FFF742FC3046FFF783
:101210002DFAFFF7B3F8012070BDFFF727FA20463B
:1012200070BD00BF1403002070B50446FFF716FA26
:10123000256806461DB16B1C05D100232360BDE85F
:101240007040FFF713BA284650F808390A21236086
:10125000FEF7DAFF236813B94FF0FF33236015F868
:10126000034C3046FFF702FA2046BDE87040FFF716
:101270000BB800000C4B0D4A9A60102283F8222014
:10128000DA77002202F16041013201F5614110205C
:10129000392A81F80003F5D11A6902431A615A69A3
:1012A00042F400725A61704700ED00E0000000084F
:1012B00008B505480121FFF787FF044A136A43F484
:1012C0000073136208BD00BF580B002000380240B5
:1012D000052838B5054627D8FFF7EAFF144B53F821
:1012E00035001C46421C01D0FFF732FE114A4FF474
:1012F0008033536004EBC5031B790F48103B012B6F
:101300009EBF536843F4000353600C4B01229A6064
:101310004FF400325A600A4A136A23F400731362CE
:10132000FFF782FF002038BD4FF0FF3038BD00BF0F
:10133000B826000800270140580B00200024014077
:101340000038024038B531F0407305460C462BD1C9
:10135000FFF7AEFF164B04F0407459680C435C6015
:101360001A6B22F470021A63124A02EBC50002796A
:101370001A6419680E4AC905FBD5936843F0804387
:1013800093600B4B1A689207FBD59C6D1A680A484C
:1013900022F010021A60094A136A23F400731362E0
:1013A000FFF742FF204638BD4FF0FF3038BD00BF89
:1013B00000240140B8260008580B002000380240E5
:1013C000FFF732BF38B504460020FFF721FE05467F
:1013D0000020FFF71DFE401BA042F9D338BD0000DE
:1013E00070B50646194B346886B00020049300900F
:1013F000CDF814D00C44FFF70BFE3368984204D2AA
:10140000A04220D29C4204D31DE0A34201D88442D2
:1014100019D9251A052D03D82846FFF7D3FF12E066
:10142000B5F5007F03D20020FFF7F2FD441901213A
:101430006846FFF7C9FE214601A8FFF747FA68464C
:101440000121FFF7C1FE346006B070BDC113000872
:101450000E4B70B51E460E4C0025E41AA410A54292
:1014600004D056F8253098470135F8E7FEF75CFEC2
:10147000084B094C1E46E41AA4100025A54204D0CE
:1014800056F8253098470135F8E770BD84270008E5
:1014900084270008842700088427000803460244A4
:1014A000934202D003F8011BFAE770470FB40A4BCE
:1014B00013B51C6824B1A36913B9204600F03CFAA7
:1014C00005AB2046A168049A019300F0CBFB02B063
:1014D000BDE8104004B070478002002070B50E4691
:1014E000054618B183690BB900F026FAAB69AC6800
:1014F00013B9284600F020FA314B9C4201D16C68A8
:1015000008E0304B9C4201D1AC6803E02E4B9C427A
:1015100008BFEC68A389190701D5236983B9284658
:10152000214600F0AFF858B14FF0FF3070BD002BEE
:101530000EDB236816F8012C1A7023680133236030
:10154000A36816F8012B013BA360002AEFD116E037
:10155000A269934209DB236816F8012C1A702368EC
:1015600019780A29EAD1284602E0284616F8011C13
:10157000224600F033F8421C50425041D3E7002B82
:1015800015DAA269934208DB23680A221A702368DD
:10159000197891420FD1284601E028460A212246B7
:1015A00000F01CF8431C5842584130B1BCE7236896
:1015B0000A221A702368013323600A2070BD00BF1D
:1015C000F02600081027000830270008024B0146CB
:1015D0001868FFF783BF00BF8002002070B50D467A
:1015E0001446064618B183690BB900F0A5F9224BE1
:1015F0009C4201D1746808E0204B9C4201D1B46840
:1016000003E01F4B9C4208BFF468A369A360A38951
:101610001A0709D523693BB123682069EDB2181A6E
:10162000636998420FDB08E03046214600F02AF853
:101630000028F1D04FF0FF3070BD3046214600F059
:1016400011F90028F6D1A3680130013BA36023689B
:101650005A1C22601D706369984204D0A389DB077D
:1016600007D50A2D05D13046214600F0FBF80028A9
:10167000E0D1284670BD00BFF02600081027000802
:1016800030270008314B70B51D6806460C4625B161
:10169000AB6913B9284600F04FF92D4B9C4201D19C
:1016A0006C6808E02B4B9C4201D1AC6803E02A4BEC
:1016B0009C4208BFEC68A3899AB211071DD4D506D5
:1016C00002D40922326038E0500712D5616B41B173
:1016D00004F14403994202D0304600F001FA00239D
:1016E0006363A38923F02403A38100236360236938
:1016F0002360A38943F00803A38123694BB9A3891D
:1017000003F42073B3F5007F03D03046214600F088
:101710009BF9A38913F0010205D00022A26062693F
:101720005242A26103E0990758BF6269A260226930
:101730004AB903F0800080B230B143F04003A38186
:101740004FF0FF3070BD002070BD00BF8002002050
:10175000F026000810270008302700088A892DE9A4
:10176000F041054610070C4657D44B68002B02DCAD
:101770000B6C002B18DDE66AB6B102F48052002330
:1017800092B22F682B600AB1626D10E0216A284680
:101790000123B047411C024609D12B683BB11D2BE8
:1017A00001D0162B46D12F600020BDE8F081A3891F
:1017B0005B0705D56368D21A636B0BB1236CD21A31
:1017C000E66A00232846216AB047461CA38905D152
:1017D0002A681AB11D2A01D0162A19D10022626086
:1017E0002269D904226004D5421C01D12B6803B9B7
:1017F0006065616B2F600029D6D004F144039942E3
:1018000002D0284600F06CF900206063BDE8F0814A
:1018100043F04003A381BDE8F0810F69002FC3D0DE
:1018200093070E680CBF4B690023C7EB06080F60D7
:101830008B6012E0A3894FF0FF3043F04003A38197
:10184000BDE8F0812846216A3A464346A66AB04779
:101850000028EFDD0744C0EB0808B8F1000FF1DC09
:10186000A2E7000038B50B6905460C46DBB118B19C
:1018700083690BB900F060F80C4B9C4201D16C6895
:1018800008E00B4B9C4201D1AC6803E0094B9C4241
:1018900008BFEC68B4F90C302BB128462146BDE8EE
:1018A0003840FFF75BBF002038BD00BFF0260008BE
:1018B0001027000830270008014900F0A7B800BF32
:1018C0006518000810B50446002303604360836078
:1018D00081814366C28103614361836119465C3043
:1018E0000822FFF7DBFD054B24626362044BA36211
:1018F000044BE362044B236310BD00BFA121000829
:10190000C3210008FB2100081F22000870B56823CE
:101910004D1E5D430E4605F1740100F025F90446A5
:1019200040B1002180E842000C30A06005F168025F
:10193000FFF7B4FD204670BD836910B5044633BB84
:101940008364C3640365124B124A1B688262984227
:1019500004BF0123836100F01FF86060204600F09F
:101960001BF8A060204600F017F80421E060002278
:101970006068FFF7A7FFA06809210122FFF7A2FF17
:10198000E06812210222FFF79DFF0123A36110BD31
:10199000EC260008B9180008F8B51B4B07461E686E
:1019A000B36913B93046FFF7C7FF4836B4687368A8
:1019B000013B04D4B4F90C5075B16834F8E73368CE
:1019C0002BB938460421FFF7A1FF306008B1366813
:1019D000ECE70C233B60F8BD4FF6FF73E381012376
:1019E000A38165662560A560656025616561A56167
:1019F00004F15C0029460822FFF750FD6563A563EA
:101A0000A564E5642046F8BDEC2600082DE9F843FE
:101A10008046894600F14804002694B1A5686768AD
:101A2000013F0CD4AB89012B07D9B5F90E30013336
:101A300003D040462946C84706436835F0E7246886
:101A4000EBE73046BDE8F883F0B58B8991B09D0790
:101A500006460C4625D4B1F90E10002908DAA389F0
:101A6000002513F0800F14BF40274FF480670DE06E
:101A700001AAFEF78DFB0028F1DB029D4FF4806781
:101A800005F47045A5F500514D424D4130463946AB
:101A900000F06AF860B9A3899A051DD443F00203E7
:101AA000A38104F14703236023610123636113E0F1
:101AB0000A4BB362A389206043F08003A3812061B5
:101AC00067614DB13046B4F90E10FEF766FB18B1F0
:101AD000A38943F00103A38111B0F0BDB918000838
:101AE00030B500293CD051F8042C0B1F1D49002AA9
:101AF000B8BF9B180A680C4612B95A600B6030BD1B
:101B000093420DD219685818904201BF5A58521882
:101B10001A60426823605A6030BD994203D80A4671
:101B200051680029F9D1146815199D420AD11B6822
:101B30002344D0188842136012D10868034413600C
:101B40004B680CE002D90C23036030BD1C681819E7
:101B5000884201BF086849680019186059605360DD
:101B600030BD00BF600B002070B5CC1C24F0030416
:101B700008340C2C38BF0C24002C064603DA0C2346
:101B80003360002070BD8C42F9D3204A13681046A0
:101B90001946A1B10A68121B0ED40B2A03D90A6098
:101BA0008B188C501FE08B420BBF5A684A6802604A
:101BB0005A6018BF0B4616E00B464968E9E7144D1A
:101BC0002B681BB93046FEF7B3FA28603046214631
:101BD000FEF7AEFA421C0346D1D0C51C25F0030522
:101BE00085420AD11C6003F10B001A1D20F007008A
:101BF000821A0AD05142995070BD3046E91AFEF758
:101C000097FA0130BBD02B46ECE770BD600B00208B
:101C10005C0B0020936810B5013B002B936009DA40
:101C20009469A34202DBCBB20A2B03D1BDE810407A
:101C3000FFF7D4BC1368581C10601970C8B210BDEF
:101C4000F8B506460F461446D518AC4208D03046C3
:101C500014F8011B3A46FFF7DDFF431CF5D100E005
:101C60000020F8BD2DE9F0439DB00D46904603934A
:101C7000064618B183690BB9FFF75EFE754B9D42AE
:101C800001D1756808E0744B9D4201D1B56803E04D
:101C9000724B9D4208BFF568AB891C070AD52B69BA
:101CA00043B10023099320238DF8293030238DF888
:101CB0002A3041E030462946FFF7E4FC0028F0D006
:101CC0004FF0FF30C2E0039A0134111D12680391F6
:101CD000002ABBBF524243F0020307920792B8BFEB
:101CE000049323782E2B7BD0DFF880812178404627
:101CF000032200F098FA38B1049AC8EB00004023A0
:101D0000834013430493013421785548062204F19B
:101D100001088DF8281000F086FA002800F0858070
:101D2000504B002B78D1039B073323F00703083374
:101D30000393099B3B44099343461C4613F8012B2C
:101D40001AB9B4EB08090ED002E0252AF5D1F8E75C
:101D50003046294642464B46FFF772FF013070D0AD
:101D6000099B4B4409932378002B6AD000234FF042
:101D7000FF3204930793059206938DF853301A931C
:101D800004F101084446DFF8E8902178484605222E
:101D900000F049FA08F10108049B30B1C9EB0000DA
:101DA0000122824013430493ECE7D80644BF20226B
:101DB0008DF85320190744BF2B228DF85320227829
:101DC0002A2A80D0234607991C4622780133303ACC
:101DD000092A03D80A2000FB0121F5E7079180E7D3
:101DE00063782A2B0AD1039B02341A1D1B680392C5
:101DF000002BB8BF4FF0FF33059375E7611C00223D
:101E00000C4623780131303B092B03D80A2000FB14
:101E10000232F5E7059267E703AB0093304604A969
:101E20002A46114BAFF3008007E003AB0093304626
:101E300004A92A460C4B00F093F8421C07467FF495
:101E400078AFAB895B063FF53BAF09981DB0BDE8A5
:101E5000F08300BFF0260008102700083027000894
:101E60005A27000800000000411C000856270008FF
:101E7000502700082DE9F84391461F468A680B69F0
:101E800006469342B8BF1346C9F8003091F8432084
:101E90000C46DDF8208012B10133C9F80030236808
:101EA000990642BFD9F800300233C9F800302568DE
:101EB00015F006051CD094F843302268003318BF93
:101EC000012392061FD5E118302081F843005A1CE7
:101ED00094F845102244023382F8431013E0304650
:101EE000394604F119020123C047013007D00135FA
:101EF000E368D9F800209B1A9D42F0DBDBE74FF046
:101F0000FF30BDE8F8833046394604F14302C0474C
:101F10000130F4D02268D9F80050E36802F00602DC
:101F2000042A08BF5D1B2269A3680CBF25EAE5757A
:101F300000259342C4BF9B1AED184FF00009A94534
:101F40000ADA3046394604F11A020123C04701304B
:101F5000D5D009F10109F2E70020BDE8F8830000BF
:101F60002DE9FF410C461746227E98466E2A06460A
:101F70000A9B01F1430100F0B08012D8632A23D0FC
:101F80000AD8002A00F0BD80582A40F0CC8084F89E
:101F90004520DFF804E257E0642A1ED0692A1CD0ED
:101FA000C1E0732A00F0B18009D86F2A2ED0702AC0
:101FB00040F0B980226842F0200222603FE0752A9A
:101FC00024D0782A3BD0AEE01A6804F14205111DF6
:101FD0001960136884F84230A9E020681A6810F08C
:101FE000800F02D0101D186008E010F0400F02F1C1
:101FF0000400186002D0B2F9003000E01368002B32
:102000003EDA2D225B4284F8432039E020681A68CA
:1020100010F0800F02D0101D186007E010F0400F84
:1020200002F10400186001D0138800E01368227EDA
:10203000DFF864E16F2A0CBF08220A221CE0782234
:10204000DFF858E184F845202268186812F0800F04
:1020500000F104051D6003D1550601D5038800E099
:102060000368D00744BF42F0200222601BB92268F7
:1020700022F0200222601022002084F8430002E0B7
:10208000DFF814E10A226568002DA8BF2068A5606A
:10209000A4BF20F00400206003B965B10D46B3FB76
:1020A000F2F002FB10331EF8033005F8013D034641
:1020B0000028F4D100E00D46082A0BD12368DA0786
:1020C00008D5236962689A42DEBF302305F8013CD7
:1020D00005F1FF35491B21612EE025681A6815F0CE
:1020E000800F606903D0151D1D60136808E015F0AE
:1020F000400F02F104051D60136801D0188000E054
:102100001860002323610D4616E01A68111D19603E
:10211000156800212846626800F085F808B1401B68
:102120006060636804E004F1420584F84220012302
:102130002361002384F84330CDF8008030462146E7
:1021400003AA3B46FFF796FE013002D14FF0FF3065
:102150001FE0304639462A462369C0470130F5D092
:1021600023689B0705D4E068039B9842B8BF1846D4
:102170000FE00025E368039A9B1A9D42F3DA30468C
:10218000394604F119020123C0470130DED0013580
:10219000F0E704B0BDE8F08161270008722700086D
:1021A00010B50C46B1F90E10FDF7E0FF0028ABBFEB
:1021B000636DA3891B1823F48053ACBF6365A381AF
:1021C00010BD2DE9F0411D468B890746DB050C4605
:1021D000164605D5B1F90E1000220223FDF7D3FFF4
:1021E000A389384623F48053A381B4F90E103246F4
:1021F0002B46BDE8F041FDF7BDBF10B50C46B1F967
:102200000E10FDF7C0FF431CA38915BF606523F4C2
:10221000805343F48053A38118BFA38110BDB1F94B
:102220000E10FDF7ABBF10B5C9B202449042034691
:1022300005D01C7801308C42F8D1184610BD002022
:1022400010BD4E4D492048414E444C4552004D452D
:102250004D204D414E4147452048414E444C45524A
:1022600000425553204641554C542048414E444C61
:102270004552005553414745204641554C5420484E
:10228000414E444C4552004445425547204D4F4E27
:102290002048414E444C45520044554D4D5920482C
:1022A000414E444C4552000A4953522073746163B5
:1022B0006B206F766572666C6F776564005374612E
:1022C000636B20706F696E74657220636F727275D4
:1022D000707465642C20726573657420746F20744B
:1022E0006F70206F6620737461636B000A436F6EBA
:1022F00074657874206265666F72652068617264C7
:102300006661756C743A0020202072303A20307873
:102310002530386C780A20202072313A2030782518
:1023200030386C780A20202072323A2030782530FC
:10233000386C780A20202072333A203078253038E3
:102340006C780A0020207231323A203078253038FB
:102350006C780A2020206C723A2030782530386C56
:10236000780A20202070633A2030782530386C7845
:102370000A20207073723A2030782530386C780A41
:102380000A004653522F4641523A002043465352C8
:102390003A2030782530386C780A0020484653526D
:1023A0003A2030782530386C780A00204446535261
:1023B0003A2030782530386C780A00204146535254
:1023C0003A2030782530386C780A00204246415255
:1023D0003A2030782530386C780A004D4D4641520D
:1023E0003A2030782530386C780A004D69736300E4
:1023F0004558435F5245543A2030782530386C7840
:102400000A00417474656D7074696E6720746F2082
:102410007265636F6E737472756374207374617424
:102420006520666F7220646562756767696E672EE6
:102430002E2E00496E204744423A0A2020736574CC
:10244000202470633D3078256C780A202066726104
:102450006D6520300A202062740A000A4953522018
:10246000737461636B206F766572666C6F776564F9
:10247000206279206174206C65617374202564206A
:1024800062797465732E0A004841524420464155D2
:102490004C542048414E444C4552004641494C451D
:1024A0004420415353455254494F4E2E0025700A43
:1024B000002A2A2A2052494F54206B65726E656C9F
:1024C0002070616E69633A0A25730A0A002A2A2A73
:1024D0002068616C7465642E0A0A006D61696E285B
:1024E000293A20546869732069732052494F542156
:1024F000202856657273696F6E3A20323031382E5B
:1025000030312D646576656C2D313230362D67346F
:10251000363961312D696E7269612D48502D454EF5
:1025200056592D647636290A0069646C65006D6120
:10253000696E00010100000000440040000002003C
:102540000300024002000240070700260048004046
:10255000000004000B0802400A0802400707002799
:102560000038014000400000090002400A0002401B
:1025700007070125000C0040FFFFFFFF08000000D7
:10258000002E00000A52494F5420414443207065F8
:10259000726970686572616C206472697665722018
:1025A000746573740A0054686973207465737420C9
:1025B00077696C6C2073616D706C6520616C6C2048
:1025C000617661696C61626C6520414443206C698D
:1025D0006E6573206F6E6365206576657279203154
:1025E00030306D7320776974680A612031302D6254
:1025F0006974207265736F6C7574696F6E20616E9B
:1026000064207072696E74207468652073616D70E7
:102610006C656420726573756C747320746F2053DD
:102620005444494F0A0A00496E697469616C697AB9
:102630006174696F6E206F66204144435F4C494E60
:102640004528257529206661696C65640A00537503
:10265000636365737366756C6C7920696E69746900
:10266000616C697A6564204144435F4C494E45285A
:102670002575290A004144435F4C494E452825757C
:10268000293A2031302D626974207265736F6C7540
:1026900074696F6E206E6F74206170706C69636115
:1026A000626C650A004144435F4C494E45282575DC
:1026B000293A2025690A00000000024000000000BD
:1026C000010002400100000004000240040000007C
:1026D0000004024008000000010802400B00000056
:1026E000000802400A000000430000002002002011
:1026F00000000000000000000000000000000000DA
:1027000000000000000000000000000000000000C9
:1027100000000000000000000000000000000000B9
:1027200000000000000000000000000000000000A9
:102730000000000000000000000000000000000099
:102740000000000000000000000000000000000089
:10275000232D302B2000686C4C006566674546478A
:10276000003031323334353637383941424344450D
:10277000460030313233343536373839616263647C
:04278000656600008A
:10278400680B0020000000006003002040000000EF
:102794000000000000000000292500082E25000884
:1027A40000000000F0260008102700083027000869
:1027B4000000000000000000000000000000000015
:1027C400E8260008000000000000000000000000EF
:1027D40000000000000000000000000000000000F5
:1027E40000000000000000000000000000000000E5
:1027F40000000000000000000000000000000000D5
:08280400200200202821000041
:040000050800046D7E
:00000001FF
