:020000040800F2
:10000000000200200D040008E90300089D03000819
:1000100000000000000000000000000000000000E0
:100020000000000000000000000000007103000854
:10003000000000000000000049030008F903000868
:10004000B9000008B9000008B9000008B9000008AC
:10005000B9000008B50D0008B50D0008B50D000881
:1000600000000000B9000008B9000008B90000084D
:10007000B9000008B900000800000000B50E000833
:100080000000000000000000000000000000000070
:10009000B900000800000000B9000008B90000081D
:1000A00000000000B900000800000000000000008F
:1000B000690C0008B900000808B500F09DF908BDFA
:1000C00008B500F073FA08BD7047000070B50C1C4D
:1000D000061C00F05BFA094B094A1D682919914278
:1000E00002D8084A914204D20C23012533606D42A4
:1000F00000E0196000F052FA281C70BD00020020D8
:1001000000200020880B002008B5101C191C00F0EE
:100110005BFA08BD08B5101C191C00F05FFA08BD99
:100120001323036001204042704713230360012022
:100130004042704713230360012040427047002370
:1001400002220360181C8A42584170470020124B5B
:1001500010B51860114B12491A680C6853421340CD
:10016000104A5343104ADB0ED35C104A9B009B5845
:100170001B68083B9C420DD0844204D02279092A96
:1001800001D1013222710922D8881A71084A0B6004
:100190001080012010BDC046A4020020780300207A
:1001A0003003002031B57C074E2D000834030020B9
:1001B0002C03002030B50379082917D9082B31D832
:1001C000041C4379184A9B009D580834002D04D024
:1001D0002D6885609D582C6000E08460D450012318
:1001E0004479124AA340146823431AE0082B19D912
:1001F00044790D4BA400E258002A07D01568AA42A2
:1002000002D10022E25001E02C6814604479A2007F
:100210009B58002B06D10133A340044A14689C4329
:10022000231C1360017130BD3403002078030020CB
:1002300008B5094B1B685A791B79082B01D98242F2
:1002400009D900F0AEF9002803D00122034B1A604F
:1002500001E000F06FF808BD30030020A402002088
:1002600038B5002400F092F9084B094A1B88094D63
:100270001BB29B009C50084A28681368211C013B54
:100280001360FFF797FF2C6000F050F82C0300205C
:10029000A80200203003002074030020D31803229A
:1002A00093431F4A10B51C1F2260620703D0083B0E
:1002B0001C1C1C4B23608022231F52041A601A4A04
:1002C000043B1860043B1A600022043B1A60043BA4
:1002D00003321A60043B013A1A60043B013A1A6087
:1002E000043B19600632043B1A60043B013A1A6071
:1002F000043B013A1A60043B013A1A60043B07329E
:100300001A60043B013A1A60043B013A1A60043B4C
:10031000013A1A60201C032344385B42036010BD7D
:1003200077777777888888886102000800F032F94B
:1003300001DFFEE78021034A490553680B43536000
:100340007047C04600ED00E0EFF30980EC468546BB
:100350004046494652465B46FFB4704601B4684683
:10036000E54602490968086000F002F83003002001
:10037000FFF7ECFEEE46084800680068854601BCC1
:100380008446FFBC8046894692469B46684680F379
:100390000988F54660470000300300200F49104AE5
:1003A000104B6846904203D8984201D9002102E0E0
:1003B000091C8D46012104207246024202D1EFF34E
:1003C000088001E0EFF30980F0B443464C465546FF
:1003D0005E4678B46B4600F04DF8C046000200203F
:1003E000002000205801002008B50420014900F039
:1003F000EDF9C0466E2D000808B50620014900F051
:10040000E5F9C0467A2D00087047704708B5FFF738
:10041000FBFF6A46104B934202D2104902C3FAE72F
:1004200000220F4B0F49D3188B4204D20E49895832
:1004300004321960F5E70D4B0D4A934202D20022B7
:1004400004C3F9E7FFF7E1FF00F0BAF901F050FD4E
:1004500000F0F0F908BDC04600000020FEE7FEE70E
:1004600000020020A40200205C330008A402002047
:10047000880B0020F0B58DB00B93364B0A921A68AA
:10048000354B041C03919A4202D0344801F0F4FD2C
:10049000039B002B05D00025314801F0EDFD2E1CFB
:1004A00024E0251C2368E76904936368A669059323
:1004B000A36824350693E368079323690893636967
:1004C0000993BB0500D4043D264801F0D5FD079BE8
:1004D00004990093059A069B234801F037FD009785
:1004E00022480899099A331C01F030FD204801F098
:1004F000C3FD20480A9901F029FD039B002B23D15D
:100500001D4801F0B9FD311C1C4801F01FFD694672
:10051000104BC91A1A4BC91803D54942194801F0A2
:1005200015FD0B9B1E1C201C8268C36801698C464C
:1005300041698E46AD46311CF0C9A046A946B24677
:10054000BB46F0C94168006801BE05200E4900F0B5
:100550003DF9C04600000020FEE7FEE7882D0008B8
:100560009E2D0008CD2D0008E82D0008252E00083E
:10057000632E0008682E00087A2E0008AB2E0008B3
:10058000A8FEFFFFD32E0008002F0008EFF3108015
:1005900072B6704762B6EFF31080704780F3108830
:1005A0007047EFF30580C0B270470000E12108B545
:1005B00000204902024A034B00F0ECFA08BDC04695
:1005C000D10A00080402002008B5031C0A1C0248D6
:1005D000191C00F088FA08BD0402002010B5031CA5
:1005E0000C1C0020191C221C00F024FB201C10BD38
:1005F00008B5002000F020FC08BD000008B5044B41
:100600001968002903D182B2081C00F0F5FB08BD6F
:10061000C0030020F7B58022274D52022B680195B8
:100620009B182B602B68002B03D1244A13680133DD
:1006300013600020224B234C1A6818602368224E56
:10064000191C3260002904D01C4F8D683F68BD42E0
:1006500003D9216000280BD12DE0019D2D68AC4607
:100660004D682F0C3F046745F3D1081C0968E9E782
:10067000002101608A421DD0111C002B04D050685B
:100680005C68A04200D9191C081C12681B68002A6B
:1006900001D103600CE0002B01D1026008E0556835
:1006A0005F68141CBD4200D91C1C0460201CECE7D0
:1006B000316000E03360F7BDC4030020C8030020B0
:1006C000BC030020D0030020CC030020F8B5012398
:1006D0002E4E2F4C33602368002B07D1FFF79AFF73
:1006E000FFF786FF2B4B9842FAD033E0FFF780FFED
:1006F000051C11E0BFB2874205D923685F68FFF788
:1007000077FFA842F6D223681A681869226000228F
:100710005A609A60DA6890472368002B04D1FFF78B
:1007200067FF85420CD913E05F68FFF761FFA842BD
:10073000E3D3BBB28342E0D91B1A132BEFD8DCE71B
:100740002368002B08D1FFF753FF071EAF420BD2DF
:10075000FFF760FF0025DFE75F68FFF749FF143F01
:1007600014308742D8D30AE0031C14339BB283426F
:1007700004D2FFF73DFFB842FBD2E9E7054F002363
:10078000381C3360FFF73AFFF8BDC046C0030020B5
:10079000CC030020FFFF0000002008B50449054AF3
:1007A000031C00F05BFB01204042FFF727FF08BD60
:1007B00040420F00CD06000808B5FFF7E7FEFEE750
:1007C00008B500F025F908BD704700000D4B10B5C5
:1007D0001A680C1C002A0ED101321A60032803D1BA
:1007E0007146094801F0B2FB0848211C01F0AEFB3C
:1007F000074801F0ABFBFFF7C9FEFFF7E5FFFFF786
:10080000DBFFC046D4030020252F0008292F000855
:10081000452F000808B500F0F9FC034801F096FBED
:1008200000F06CFC002008BD532F000808B500F054
:10083000DFF8FCE71FB50024FFF7A8FE80210D4B71
:10084000019400930C4B49001B680F2202930B4844
:100850000C2300F04FF8C021094B01940093094B81
:10086000C9001B680722029307480C2300F042F8D6
:10087000FFF75CFD2D08000818020020D8030020B7
:10088000150800081C020020D804002008B5FFF756
:100890007DFE094B1B681A79082A07D95B79074A3C
:1008A0009B009958002901D009689950FFF776FEFE
:1008B000FFF740FD08BDC046300300203403002090
:1008C00038B50B79082B03D903200949FFF77EFFC0
:1008D0000A1C4C7908320368002B06D01D1C083D09
:1008E0006D79A54201D8181CF5E78B60026038BD10
:1008F000132F0008F0B587B0051C029103920493F2
:100900000F2A68D803230340191E029B04D0042237
:10091000531A029AC518D31A0322303B9343059306
:10092000EC18049B1B0705D52B1CA34203D21B60AC
:100930000433FAE72D60FFF729FE0123071C9AB262
:100940000192274A99005658002E28D16B469B8861
:100950008C500C98E3800D992A1C059BFFF79EFC98
:10096000029B0121E3620E9B1E4AA3626B461B7B26
:100970002060637101235B42E361136865620133A8
:100980001360049B2671A660E66026616661A6611D
:1009900026620B420BD0201CFFF70CFC16E0013343
:1009A000212BCCD1381CFFF7F9FD0F4814E0201C97
:1009B0000A21FFF7FFFB049B5B0707D4381CFFF7F6
:1009C000EDFD6B469889FFF733FC02E0381CFFF71A
:1009D000E5FD019800E0054800B207B0F0BDC04653
:1009E000A80200207403002075FF0000EAFF000049
:1009F0000421064A08B513698B431361FFF7C6FD4E
:100A0000BFF34F8F30BFFFF7C9FD08BD00ED00E019
:100A100038B500F053FC8022284C52002368284D42
:100A200013432360E3682B40E3602268254B1340A7
:100A3000236000230122A3612368134323602368FA
:100A40005B07FCD50221204B00201A680A431A607C
:100A50001A6801390A4380211A60490500F062F8DA
:100A600080221A4B12011A605A68D206FCD48822DE
:100A7000E368D203E360E368E360E368E360E368AC
:100A80001D40E560E36813438022E360236852045D
:100A9000134323602268094B9201FBD50320D968D8
:100AA0008143D960DA680243DA600C23E2681340BC
:100AB0000C2BFAD100F04BFA38BDC04600100240B2
:100AC000FFFF02FFFEFFF2FE002002400070004028
:100AD00038B5041C043000F027FA051C201C00F077
:100AE000C9FB281C38BD70B5041C0E1C151C201D2C
:100AF000311C2A1C00F002FA002804D1201C01211C
:100B000000F088FBF3E770BD004870470048E8013B
:100B1000024B185C024B58437047C046A92F00088F
:100B20000048E80100B5032813D80B4B00F0C6FCC1
:100B300002060A0E9A6B114399630AE05A6B11433D
:100B4000596306E01A6B1143196302E0DA6A114334
:100B5000D962BFF34F8F00BD0010024000B50328DB
:100B600014D80B4ACB4300F0A9FC02060A0E916B85
:100B70000B4093630AE0516B0B40536306E0116B2B
:100B80000B40136302E0D16A0B40D36200BDC04644
:100B90000010024070B5041C0E1C151C002803D068
:100BA00003201E49FFF712FE1D4A01211560536004
:100BB0001C4800F077F81B4800F0EAF819480421B7
:100BC00000F0ADF8002D07D0211C174800F06AF89E
:100BD0001548042100F0A3F8802100208902FFF7C6
:100BE000A1FF0020114C20606060A060FFF78CFF27
:100BF000311C00F06DFC0F2203091B051B0C10407B
:100C00001843E0600923002D04D08022084B5205D0
:100C10001A602D230020236070BDC046132F0008EA
:100C2000D80A0020020000500F000050004400408D
:100C300000E100E008B58A1800280AD0032008491E
:100C4000FFF7C4FDD8690006FCD50878054B0131D3
:100C50009862044B9142F5D1DA695206FCD508BD81
:100C6000132F00080044004038B50B4CE569AB0673
:100C700005D50A4B616A1A68C9B2586890470822BC
:100C8000154202D0236A13432362054B1B68002BD5
:100C900001D0FFF7FBFD38BD00440040D80A00201A
:100CA000A4020020F7B50F230125041C071C0E1C0D
:100CB000810A9C431F400B40291C03209940FFF7E9
:100CC00031FF032279008A409446D24320680323EF
:100CD0001040206020680190301C18408840019B23
:100CE000184303232060E0680240B00803408B40B3
:100CF000191CE260E268360911432A1C3540BD40E8
:100D0000BA402F1CE1606368002093436246636031
:100D100063681F436760A3681343A360FEBD70B59B
:100D20000F240323051C20404600B340A5432A6836
:100D30009A430223B3402A602A68134307222B6098
:100D400082429B411040221C800081408240081C4E
:100D50005B429B00EB181D6A95431D621A6A1043A3
:100D6000186270BD38B50F240123810A21408B40E1
:100D7000051C191C0320FFF7D5FE291C0322A143E3
:100D80002C406400A240141C0B681C430C6038BD4E
:100D90000F23021C9A430340012098409061704742
:100DA0000F23021C9A4303400120103398409061A6
:100DB0007047000070B500240C4D6E692B681E4012
:100DC0000123A3401E4206D06B61094BE200991833
:100DD0004868D35898470134102CF1D1054B1B6853
:100DE000002B01D0FFF752FD70BDC046000401404A
:100DF000E00A0020A402002010B5032916DC0D4CE7
:100E000000010359201840680240081C0C30800083
:100E10001818426002228A401869111C021C8A4379
:100E20001A61DA6800201143D96001E001204042D4
:100E300010BDC046AC2F0008024B0001C358586AD1
:100E40007047C046AC2F00080121034B0001C25877
:100E500013680B4313607047AC2F000870B500286F
:100E60001FD18025041C0E1C0F49ED050CC101216A
:100E7000FFF758FE0D4B2C60201C6C60EB62FFF7F7
:100E800047FE311C00F024FB012380220138A862B8
:100E90006B61074B1202201C1A60FFF7D5FF201C64
:100EA00001E00120404270BD600B0020FFFF000008
:100EB00000E100E038B580230024DB051D69DB6814
:100EC0001D400223A3401D4209D08021C905CA68E4
:100ED0009A43084BCA6058681A68211C904701342D
:100EE000042CEED1044B1B68002B01D0FFF7CEFC85
:100EF00038BDC046600B0020A402002030B5141C91
:100F0000002C0FD08568C3689D420BD08568013CDA
:100F10006B1C83604368013B2B400568EB5C0B70E6
:100F20000131EDE7101B30BDC26830B543688468FD
:100F3000121B9A4208D0C2680468013B551C13403A
:100F4000C560E154002001E00120404230BD7047FF
:100F500038B5054C00202568FFF76EFF2368AB42CB
:100F6000F7D1184338BDC046C403002070B5041C37
:100F7000FFF7EEFF061C201C00F02EFF0022094B9D
:100F800000F090FC041C0D1C301C801B00F060FF66
:100F9000221C2B1C00F044FB002802D0FFF7D8FFD6
:100FA000F3E770BD00408F40F7B500240F1C161CFE
:100FB000251C0190B44206DA0198391C00F0FAF9B8
:100FC00001342D18F6E7281C311C00F081FAFEBD13
:100FD000F8B51D4801F050F800241C4F661C002C89
:100FE0000ED11B4800F0B2FF0A20FFF7BFFF80229E
:100FF000201C211CD200FFF7D7FF341C3860ECE71F
:10100000144BA500E858FFF7C3FE311C124800F04E
:101010009DFF0A20FFF7AAFF00208022011CD200BA
:10102000FFF7C2FF211C021C78510C4800F08EFF14
:10103000084B341CE858FFF7B3FE052ECDD1084805
:1010400001F01AF8F8BDC046BC2F0008680B00205C
:10105000CC2F000828020020DF2F0008F62F000800
:1010600005300008F8B500240A4EA700B859012140
:10107000FFF718FE651C002C04D10748FFF788FE17
:101080002C1CF1E7B859FFF78BFE2C1E052CEBD179
:10109000F8BDC046280200200C00005010B5002406
:1010A000201C00F051F9002805DA1048211C00F03E
:1010B0004DFF022019E0211C0D4800F047FF201CC5
:1010C000002100F077F9002806DA0A48211C0C22DA
:1010D00000F03CFF032008E0211C07480C220134EB
:1010E00000F034FF032CDBD1002010BD1B300008C2
:1010F00042300008693000089930000813B5FFF746
:10110000B1FFFA20C000FFF731FFFFF761FF2B4C62
:101110002B48E3680093236901936268A368216800
:1011200000F014FF274800F0A7FF274800F0A4FFB5
:10113000264800F0A1FF264800F09EFF254800F059
:101140009BFF254800F098FF244800F095FFFA2007
:10115000C000FFF70BFFFFF7A1FF214800F0F6FEEC
:101160002168204800F0F2FE61681F4800F0EEFEA2
:10117000A1681E4800F0EAFEE1681D4800F0E6FEA6
:101180001C48216900F0E2FE1B48FFF701FE002425
:101190001A4B201C1A680021FFF706FF211C021CB5
:1011A0000134174800F0D2FE032CF1D1154800F0AD
:1011B000CDFE154B1868FFF7D9FEE8E7680B002055
:1011C000B6300008D730000812310008303100086E
:1011D0004B310008693100088A310008AC31000841
:1011E000CA310008D8310008E9310008FA31000896
:1011F0000B3200081C3200080C00005024020020B2
:101200002D320008512F00082002002008B5FFF7FA
:10121000C3FA08BD70B5051C0C1CFFF7B7F92B68A5
:10122000061C002B04D1013B2B60FFF7B7F919E036
:10123000002C19D00E4B02211C68201CFEF7BAFFAF
:101240002B68013305D1231C08332B600023A360D6
:1012500003E0281C211CFFF733FB301CFFF79EF92D
:10126000FFF768F8012002E0FFF798F9201C70BD35
:101270003003002070B5051CFFF788F9061C2868AC
:10128000002803D0431C05D100232B60301CFFF73E
:1012900085F912E003680A212B600838041CFEF768
:1012A00089FF2B68002B01D1013B2B606479301C36
:1012B000FFF774F9201CFEF7BBFF70BD184A194BED
:1012C000116A70B50B408021C9030B438021136262
:1012D000D369C9051B021B0A0B43141C0021D361EF
:1012E0008B08114A9B009B180322FF20C0260A404E
:1012F000D2009040B6009D59013185434020904076
:10130000021C2A439A511E29EAD110222369134351
:1013100023616369F132FF321343636170BDC046DC
:1013200000ED00E0FFFF00FF00E100E008B5012153
:101330000448FFF76FFF802101208900FFF7F2FBCF
:1013400008BDC0467C0B002010B5062826D8041C1A
:10135000FFF7ECFF134AE00013181B79113B012B38
:1013600002D98058FFF7FEFCC82100240E4B0F4A1B
:101370000904DC601C61116007215A6901200A43DD
:101380005A611A6803390A43FD311A60FF31FFF7C9
:10139000E5FB0748FFF76EFF201C01E001204042FB
:1013A00010BDC04648320008002401400827014013
:1013B0007C0B002018230A1C70B59A436ED10C1CBC
:1013C000051CFFF7B3FF374B9A68D20704D49A681D
:1013D0003449D20708D50FE002219A680A439A607F
:1013E0009A68D207FCD4F2E780208A68000602439C
:1013F0008A609A68002AFCDB01211A680A431A6095
:10140000294A9A601A68D207FCD5284AE8001118C0
:101410000979112904D18026254DF603296805E0B4
:10142000122905D18026224D3604296831432960CE
:10143000182110180122DD688D43DD60DD68214030
:101440002943D960017904208A409A6219680143CE
:1014500019609A6802439A601968124A4907FBD5D5
:10146000146C9168C9070AD5022091680143916004
:10147000012298680B490240FAD18A600A600C4A3E
:101480000C4B116801200B40802113608900FFF78D
:1014900065FB0948FFF7EEFE201C01E001204042F9
:1014A00070BDC04600240140010000104832000811
:1014B00008270140FFFF3FFF7C0B002002B471466C
:1014C00049084900095C49008E4402BC7047C04687
:1014D000002243088B4274D303098B425FD3030A73
:1014E0008B4244D3030B8B4228D3030C8B420DD386
:1014F000FF22090212BA030C8B4202D31212090214
:1015000065D0030B8B4219D300E0090AC30B8B4251
:1015100001D3CB03C01A5241830B8B4201D38B03FF
:10152000C01A5241430B8B4201D34B03C01A5241A4
:10153000030B8B4201D30B03C01A5241C30A8B42E7
:1015400001D3CB02C01A5241830A8B4201D38B02D2
:10155000C01A5241430A8B4201D34B02C01A524176
:10156000030A8B4201D30B02C01A5241CDD2C309E8
:101570008B4201D3CB01C01A524183098B4201D364
:101580008B01C01A524143098B4201D34B01C01A4F
:10159000524103098B4201D30B01C01A5241C308C7
:1015A0008B4201D3CB00C01A524183088B4201D336
:1015B0008B00C01A524143088B4201D34B00C01A22
:1015C0005241411A00D20146524110467047FFE78E
:1015D00001B5002000F00CF802BDC0460029F7D08C
:1015E00003B5FFF775FF0EBC4243891A1847C04682
:1015F0007047C0468446101C62468C46191C6346E0
:1016000000E0C0461FB500F0E7F8002801D4002133
:10161000C8421FBD10B500F02BF84042013010BD8C
:1016200010B500F0D9F8002801DB002010BD012022
:1016300010BDC04610B500F0CFF8002801DD002035
:1016400010BD012010BDC04610B500F055F80028AF
:1016500001DC002010BD012010BDC04610B500F017
:101660004BF8002801DA002010BD012010BDC04653
:10167000F0B55F464D4644465646F0B41F035C0045
:10168000DB0F99461B4B0E034D00C90F8446360BEA
:101690006D0D8B4690463F0B640D9D420CD0154B53
:1016A0009C4210D00123A54214D0181C3CBC90468B
:1016B0009946A246AB46F0BD311C01230143F4D14B
:1016C0000C4B9C42EED13A430123002AEDD1012379
:1016D000A542EAD1BE42E8D1C445E6D1CB4506D009
:1016E000002DE2D13043031C581E8341DDE7002367
:1016F000DBE7C046FF070000F0B5574645464E46BB
:10170000E0B40F034E00C90F8A4632491D035C0046
:1017100084463F0B760D90462D0B640DDB0F8E42F9
:101720000FD08C4239D0002E10D138434142414174
:101730008946002C27D12A4325D1002000290ED12B
:1017400008E0391C01432ED1B44226D0002C0BD026
:101750009A450DD05346594201231943081C1CBC1D
:1017600090469946A246F0BD2A43F3D09A45F1D15E
:10177000A642EFDC1ADA5046414248410123414279
:101780001943081CEBE74A46002AE1D05842584169
:10179000012241421143081CE1E7291C114302D1F7
:1017A000002EC2D0D4E702204042D8E7AF42D1D8C1
:1017B00009D00020AF42D2D25046414248410123D5
:1017C00040421843CBE7C445C4D80020C445F3D3F6
:1017D000C5E7C046FF070000F0B55F464D464446EA
:1017E00056468046F0B4061C0803000B84462C487D
:1017F0004C001F035D00C90F640D8B4691463F0BE3
:101800006D0DDB0F844212D0854225D0002C14D1FF
:1018100061460E4370424641002D35D0002E21D046
:1018200058425841012143420B43181C0EE06146C7
:10183000022031430AD1A5420ED0002D12D13A43E5
:1018400010D15B46594201231943081C3CBC904609
:101850009946A246AB46F0BD391C02201143F5D192
:10186000002CD5D09B45ECD1AC42EADC05DBBC4575
:10187000E7D80FD00020BC45E8D258464142484145
:10188000414201200843E1E73A43C7D10020002E3E
:10189000DCD1D6E7C845D4D80020C845EDD3D5E77C
:1018A000FF070000F0B55F4656464D464446F0B48B
:1018B000051C061C080387B099464F00030BCC0F8C
:1018C00092469B467F0D019467D06C4B9F4236D069
:1018D00080205B4640031843C0006B0F1843684BE1
:1018E00083469C4600239846EE00674400934B468F
:1018F00049461D03C90F5B0052462D0B5B0D8946FF
:1019000000D16EE05D498B4264D080205C49400389
:101910008C4600210543ED00500F0543D20063447F
:101920004846FF187B1C9A46009B604002900B4380
:101930000F2B00D9ACE053489B00C3589F465B4631
:101940001D4300D082E00823009300239B4602330E
:1019500000269846CBE7029B01934346022B59D1C0
:10196000012400250026019B1C40444B00212D032F
:101970000A0D12052D0B1543434A1B0515401D4347
:101980006D00E4076D082543301C291C07B03CBCE2
:1019900090469946A246AB46F0BD2B434ED05B46DF
:1019A000002B00D185E1584600F084FA021C282360
:1019B000291C9B1A161C5846D940083EB0400B1CE7
:1019C000B54003439B462E1C0023304F0093BF1AA3
:1019D00098468CE7514629432ED10025002202214A
:1019E0009EE75146294323D0002D00D154E1281C05
:1019F00000F060FA031C28215046C91A1A1CC8407E
:101A00005146083A914095400A1C05431F48002161
:101A1000C31A85E7032B00D1C2E1012B00D06DE191
:101A20004446019B00251C40E4B2002300269DE7AC
:101A300000250022012173E7032171E704230093AD
:101A400000239B4601330026984650E70C23009361
:101A5000093B98464BE7802500242D030026074BC1
:101A600084E74B46AB46161C0193884675E7029BFC
:101A7000AB46161C019388466FE7C046FF0700007F
:101A800001FCFFFF80320008FFFF0F800DFCFFFF0D
:101A9000330C3604360C9C46331C140C1204120C06
:101AA00053439846634653439946634663430193C1
:101AB000331C41466343090C4B445B18994505D9D7
:101AC000802040028146019949440191190C0391FB
:101AD00041460904090C1B045B1804932B0C98461F
:101AE000331C2D04290C4B43604600934346654646
:101AF00058435E43009B4D431B0C9946AE194E4420
:101B00008446B54203D980235B029946CC44350C08
:101B10002B1C0398634484460593009B36041B04E6
:101B20001B0CF3189C446046039058460504060CB1
:101B3000280C84465043351C814660466543444327
:101B40004846000C8346724314195C44A24203D9F0
:101B50008022520293465D44220CAD184A4612047C
:101B6000120C24044046A41862464A43714346437B
:101B700060460096464670438046100C8446884472
:101B8000E044414505D9802149028C4600996144D1
:101B90000091019803998446614499429B415B42BC
:101BA00099460598434684461204120C1B049B1860
:101BB00063449C46AB4683429B4140460A19CC4451
:101BC000A2428941E344CC45B6415C46000C8046C4
:101BD000494276425B426418334398448C428941BF
:101BE000AB459B4149425B4219430D1C009B454458
:101BF000EE187602E50D2E43B346049B56021E43B3
:101C0000731E9E415B46D20D324366021643DB01D2
:101C10000AD50123334076081E435B46DB071E438B
:101C20005B465B089B465746634BFB18002B5ADD0F
:101C3000720709D00F223240042A05D0321DB24269
:101C4000B6417642B344161C5A46D20106D55A46CE
:101C50005A4B1A4080239346DB00FB18584A9342A4
:101C600034DD0124029B00251C400026554B7DE6F7
:101C700080205B460003034208D0054206D105439D
:101C80002D032D0B4C46161C4E4B6FE65D4605434F
:101C90002D032D0B4B4B69E6504600F00BF9031C4E
:101CA0002033272B00DCA6E6554608388540002265
:101CB000ACE6281C00F0FEF8021C2032272A00DCCB
:101CC00075E6083885400026AB467DE65A46F6089C
:101CD000520716435A4601245502029A5B052D0B02
:101CE0005B0D144042E6384DED1B382D0ADD012412
:101CF000029B00251C400026002337E6019B574627
:101D0000029391E71F2D25DC304B321C9C46674423
:101D1000BE405B46BB40371CEA407E1EB7411343C2
:101D20003B431E1C5B46EB401D1C730709D00F2371
:101D30003340042B05D0331DB342B6417642AD1972
:101D40001E1C2B0220D50124029B00251C400026CE
:101D500001230BE65A461E4BDB1BDA40131C202DD9
:101D60001CD01C4A94465A466744BA40171C3E434E
:101D7000721E96411E4307230025334007D00F23D0
:101D800000253340042BD6D16B076D022D0B0124A7
:101D9000F6081E43029B1C400023E7E50027E6E708
:101DA00080255B4601242D031D43019B2D03234009
:101DB0001C1C2D0B034BD9E5FF030000FFFFFFFEAA
:101DC000FE070000FF07000002FCFFFF1E040000EA
:101DD000E2FBFFFF3E04000038B5041E16D0C50F1D
:101DE00000D04442201C00F065F8174B1B1A0A284B
:101DF00021DC021C211C153291400A1C0B21081AFF
:101E0000C4405B052403240B5B0D03E00025002385
:101E1000002400220021101C24030A0D1205240BAB
:101E200014430A4A1B0514401C436400ED07640870
:101E30002C43211C38BD0B3884405B052403240B44
:101E40005B0D0022E6E7C0461E040000FFFF0F8086
:101E500010B5041E10D000F02DF8144A121A0A28EA
:101E60001ADC0B23211C1B1AD94015300B03520519
:101E700084401B0B520D01E00022002300211B03B4
:101E8000201C1C0B0B0D1B052343094C1205234082
:101E900013435B00590810BD031C0B3B9C405205CB
:101EA00023031B0B520D0024E8E7C0461E0400006C
:101EB000FFFF0F801C2101231B04984201D3000C5B
:101EC00010391B0A984201D3000A08391B099842AD
:101ED00001D30009043902A2105C40187047C046C3
:101EE00004030202010101010000000000000000E3
:101EF0000E4B70B500251E1C0D4CE41AA410A54213
:101F000004D0AB00F35898470135F8E7FEF7D8F84E
:101F1000084B00251E1C084CE41AA410A54204D04E
:101F2000AB00F35898470135F8E770BD5C33000803
:101F30005C3300085C3300085C330008031C821823
:101F4000934202D019700133FAE770470FB40B4B7C
:101F500013B51C68002C05D0A369002B02D1201CEE
:101F600000F058FA05AB201CA168049A019300F018
:101F700001FC16BC08BC04B01847C0469C020020F7
:101F800070B5051C0E1C002804D08369002B01D1FC
:101F900000F040FAAB69AC68002B02D1281C00F0BD
:101FA00039FA324B9C4201D16C6808E0304B9C42BC
:101FB00001D1AC6803E02F4B9C4200D1EC68A389AF
:101FC0001B0702D52369002B19D1281C211C00F006
:101FD000B5F8002813D00120404245E03178002BAD
:101FE0001BDAA269934211DA221C281C00F04EF879
:101FF000013042424241D0B20028ECD10136A36800
:102000003278013BA360002AE8D10CE02368197004
:10201000236819780A2903D1E6E723681970236831
:1020200001332360EAE7002B17DAA269934208DB49
:102030000A2322681370236819780A2911D1281CF1
:1020400001E0281C0A21221C00F020F80130424245
:102050004241D0B2002806D0BDE70A23226813709F
:102060002368013323600A2070BDC046C8320008CF
:10207000E83200080833000808B5034B011C186853
:10208000FFF77EFF08BDC0469C02002070B5051C0E
:102090000E1C141C002804D08369002B01D100F011
:1020A000B9F9234B9C4201D16C6808E0214B9C425A
:1020B00001D1AC6803E0204B9C4200D1EC68A369DD
:1020C000A360A3891B070AD52369002B07D02368C7
:1020D0002269F6B2981A636998420FDB08E0281C5F
:1020E000211C00F02BF80028F1D0012040421DE017
:1020F000281C211C00F020F90028F6D1A36801302B
:10210000013BA36023685A1C22601E7063699842D9
:1021100005D0A389301CDB0708D50A2E06D1281C60
:10212000211C00F009F90028DFD1301C70BDC04629
:10213000C8320008E832000808330008354B70B593
:102140001D68061C0C1C002D05D0AB69002B02D1AC
:10215000281C00F05FF9304B9C4201D16C6808E00C
:102160002E4B9C4201D1AC6803E02D4B9C4200D128
:10217000EC68A3899AB2110723D4D10607D40922A7
:102180000120326037321343A381404240E05307BD
:1021900013D5616B002908D0231C4433994202D027
:1021A000301C00F021FA002363632422A3899343A7
:1021B000A38100236360236923600822A38913435A
:1021C000A3812369002B0BD1A023A2899B0013407C
:1021D00080229200934203D0301C211C00F0ACF905
:1021E0000123A289134005D00023A36063695B42E9
:1021F000A36103E0910700D46369A3600020236911
:10220000834205D1130603D540231A43A281013826
:1022100070BDC0469C020020C8320008E8320008A9
:1022200008330008F7B58A89051C0C1C13075ED417
:102230004B68002B02DC0B6C002B1ADDE76A002FC9
:1022400017D000232E682B6080235B011A4001D039
:10225000626D15E0281C216A0123B847021C431C4B
:102260000ED12B68002B0BD01D2B01D0162B02D1C9
:102270002E6000205EE04021A3890B43A38159E03A
:10228000A3895B0706D56368D21A636B002B01D064
:10229000236CD21A0023281C216AE76AB847A38955
:1022A000421C06D12A68002A03D01D2A01D0162A12
:1022B00019D10022626022692260DB0405D5431C2B
:1022C00002D12B68002B00D16065616B2E60002964
:1022D000CFD0231C4433994202D0281C00F084F94B
:1022E0000020606326E040221343A38122E00F69AF
:1022F000002FBED00B680F60DB1B019300239207F9
:1023000000D14B69A360019B002BB2DD281C216A20
:102310003A1C019BA66AB047002806DC4022012037
:10232000A38940421343A38104E0019B3F181B1A79
:102330000193E8E7FEBD000038B50B69051C0C1CD5
:10234000002B01D100201CE0002804D08369002B61
:1023500001D100F05FF80B4B9C4201D16C6808E0A2
:10236000094B9C4201D1AC6803E0084B9C4200D170
:10237000EC680C22A35E002BE4D0281C211CFFF784
:1023800051FF38BDC8320008E832000808330008A1
:1023900008B5024900F0AEF808BDC0463923000870
:1023A000002310B5041C0360436083608181436691
:1023B000C281036143618361191C08225C30FFF70D
:1023C000BDFD054B24626362044BA362044BE362D0
:1023D000044B236310BDC046A12C0008C92C000883
:1023E000012D00082D2D000870B568254B1E5D439A
:1023F0000E1C291C743100F03DF9041E08D0002188
:102400002A1C016046600C30A0606832FFF796FD20
:10241000201C70BD836913B5002B28D18364C3646D
:102420000365134B134A1B6882620193984201D1E2
:1024300001238361041C00F01FF86060201C00F081
:102440001BF8A060201C00F017F80421E0600022B7
:102450006068FFF7A5FFA06809210122FFF7A0FF30
:10246000E06812210222FFF79BFF0123A36113BD45
:10247000C432000891230008F8B51D4B061C1D68E6
:10248000AB69002B02D1281CFFF7C4FF4835AC68AC
:102490006B68013B05D40C22A75E002F10D0683476
:1024A000F7E72B68002B06D1301C0421FFF79CFFB7
:1024B0002860002801D02D68E9E70C23336016E07E
:1024C0000123201C5B42E3810233A38167662760FE
:1024D000A760676027616761A7615C30391C0822CB
:1024E000FFF72CFD201C6763A763A764E764F8BDB2
:1024F000C4320008F7B5041C071C002601914834BB
:10250000002C16D06368A5680093009B013B0093E4
:102510000DD4AB89012B08D90E22AB5E013304D058
:10252000381C291C019B984706436835EDE7246851
:10253000E6E7301CFEBD0000F0B58B8991B09B072B
:1025400006D50B1C47330B600B6101234B6145E043
:102550000C1C0E23C95E061C002904DA8023A58901
:102560001D4010D10CE001AAFDF7E4FD0028F5DBC9
:10257000F023029D1B021D40194BED186B425D417B
:102580008027FF0001E000254027301C391C00F0A7
:1025900071F800280CD1A3899A051FD40222134395
:1025A000A381231C4733236023610123636115E06A
:1025B00080220C4BB362A38920601343A381206166
:1025C0006761002D0AD00E23E15E301CFDF7B7FDD8
:1025D000002803D00122A3891343A38111B0F0BDC9
:1025E00000E0FFFF9123000830B500293ED00439F8
:1025F0000B68002B00DAC9181D4A1368141C002B45
:1026000002D14B60116031E099420DD208680A187E
:102610009A4203D11368C3180B6053684B60216062
:1026200024E08A4203D8131C5A68002AF9D11D6895
:102630005C198C420BD109686918581819609042CE
:1026400014D110685268091819605A600EE08C4263
:1026500002D90C23036009E008680C18944203D1E6
:1026600014685268001908604A60596030BDC0465D
:10267000840B0020032370B5CC1C9C430834051C3C
:102680000C2C01D20C2405E0002C03DA0C230020D2
:102690002B6042E08C42F9D3204A1368101C191CAD
:1026A000002913D00A68121B0DD40B2A02D90A6024
:1026B0008B181FE08B4202D15A6802601BE04A6807
:1026C0005A600B1C17E00B1C4968E9E7144E33688D
:1026D000002B03D1281CFDF7F9FC3060281C211CBD
:1026E000FDF7F4FC031C421CD0D00322C61C964309
:1026F00086420AD11C60181C07210B301A1D884322
:10270000821A0AD05142995007E0311A281CFDF76D
:10271000DDFC431CBAD0331CECE770BD840B0020F9
:10272000800B0020936810B5013B9360002B05DA05
:102730009469A34208DBCBB20A2B05D01368581C5E
:1027400010601970C8B201E0FFF7A0FC10BDF8B529
:10275000061C0F1C141CD518AC4208D02178301C64
:102760003A1CFFF7DFFF0134431CF5D100E00020E5
:10277000F8BD0000F0B59FB0061C0F1C0292059337
:10278000002804D08369002B01D1FFF743FE794B69
:102790009F4201D1776808E0774B9F4201D1B7682B
:1027A00003E0764B9F4200D1F768BB891B070AD52F
:1027B0003B69002B07D0002306AD6B6120336B769D
:1027C0001033AB763DE0301C391CFFF7B7FC002816
:1027D000F1D001204042CAE0059A111D126805910E
:1027E000002A7EDB0992013423782E2B00D189E068
:1027F00021786348032200F09FFA002808D0604B3C
:102800000134C01A40238340181C2B6818432860E9
:102810002178631C5B4806220293297600F08CFA2B
:10282000002800D191E0584B002B00D084E0072213
:10283000059B07339343083305936B69039A9B18F1
:102840006B61029C2378002B04D1029BE31A049352
:1028500011D003E0252BF8D00134F3E7049B301CA2
:10286000391C029AFFF773FF431C7BD06A69049BF3
:10287000944663446B612378002B73D001220023BC
:1028800052426A6002A95432521801342B60EB6044
:10289000AB601370AB6521783C48052200F04CFA20
:1028A000002809D0394B0134C01A01238340181C79
:1028B0002B6818432860EEE72B68DA0604D553220C
:1028C000202102A8121811701A0704D553222B21B7
:1028D00002A81218117022782A2A00D17CE7099BDD
:1028E00005E05242EA60022213432B607BE7227824
:1028F000303A092A04D80A214B4301349B18F6E7E1
:10290000099371E763782A2B09D1059B02341A1DBC
:102910001B680592002B0DDA01235B420AE00023BD
:1029200001342278303A092A04D80A214B43013471
:102930009B18F6E707935BE705AB0093301C291C57
:102940003A1C134B00E000BF07E005AB0093301CBE
:10295000291C3A1C0E4B00F08BF80390039B0133AB
:1029600000D06AE7BB895B0600D532E70B981FB041
:10297000F0BDC046C8320008E8320008083300083D
:102980002E3300083233000800000000283300080E
:102990004F270008F7B5171C01930A698B68009050
:1029A0000C1C934200DA131C221C3B604332127849
:1029B000002A01D001333B6023689B0602D53B68A7
:1029C00002333B60062523681D401ED0231C433381
:1029D0001B785A1E9341226892061CD53020E118BC
:1029E0004031C870211C5A1C45310978A218403268
:1029F0000233D1700FE0221C012300980199193293
:102A0000089EB047431C0ED00135E3683A689B1A14
:102A10009D42F0DBDAE7221C009801994332089DC1
:102A2000A847431C02D10120404220E00623206831
:102A3000E1683A6803400025042B03D18D1AEB436B
:102A4000DB171D40A3682269934201DD9B1AED1834
:102A50000027AF420ADA221C0123009801991A329A
:102A6000089EB047431CDED00137F2E70020FEBDD0
:102A7000F0B58BB006920A1C43320793059004927E
:102A80000A7E0C1C109B6E2A00D1A8E011D8632A84
:102A900022D009D8002A00D1B2E0582A00D0C2E0E2
:102AA00045310A707C4A4FE0642A1DD0692A1BD048
:102AB000B9E0732A00D1A7E009D86F2A29D0702A7B
:102AC00000D0B0E0202209680A43226037E0752A6E
:102AD0001FD0782A33D0A6E00E1C1A684236111D8A
:102AE000196013683370A1E021681A68080606D4DB
:102AF000490604D5111D19600023D55E02E0111DA1
:102B000019601568002D3BDA2D23049A6D4213706D
:102B100036E021681A68080606D4490604D5156807
:102B2000111D1960ADB202E0111D196015685A4BF4
:102B3000227E03930A276F2A1DD108271BE0221C3F
:102B4000782145321170554A19680392081D226890
:102B500018600D68100602D4500600D5ADB2D30738
:102B600002D520231A4322601027002D03D12023F1
:102B700022689A432260231C002243331A7002E029
:102B80000A27454B03936368A360002B03DB0422F1
:102B9000216891432160002D02D1049E002B0ED0AC
:102BA000049E281C391CFEF719FD039B013E5B5C4B
:102BB000281C3370391CFEF78BFC051EF1D1082F41
:102BC00009D12368DB0706D563682269934202DCDA
:102BD0003023013E3370049B9B1B23612BE009686B
:102BE0001A68080607D4490605D5111D196013682F
:102BF000A28A1A8004E0111D1960136862691A60C4
:102C00000023049E236116E01A68111D19601668DE
:102C10000021301C626800F08FF8002801D0801B72
:102C20006060636803E0261C423632700123236132
:102C30000023049A1370079B05980093211C069BA0
:102C400009AAFFF7A7FE431C02D10120404221E060
:102C5000236905980699321C079DA847431CF4D0A8
:102C600023689B0705D4099BE068984212DA181C78
:102C700010E00025E368099A9B1A9D42F3DA221CB2
:102C80000123059806991932079EB047431CDCD0F2
:102C90000135EFE70BB0F0BD393300084A330008C7
:102CA00038B50C1C0E25495FFDF72EFA002803DB12
:102CB000636D1B18636503E0A289024B1340A38177
:102CC00038BDC046FFEFFFFFF8B51E1C8B89051C01
:102CD0000C1C171CDB0505D50E23C95E0022022340
:102CE000FDF723FAA289054B281C1340A3813A1C47
:102CF0000E23E15E331CFDF70DFAF8BDFFEFFFFF79
:102D000038B50C1C0E25495FFDF70FFAA389421C4C
:102D100003D1054A1340A38104E0802252011343EA
:102D2000A381606538BDC046FFEFFFFF08B50E23E5
:102D3000C95EFDF7F5F908BDC9B28218904204D00A
:102D400003788B4202D00130F8E700207047000181
:102D50001C021D0E18031E16140F191104081F1B48
:102D60000D17151310071A0C12060B050A094E4D04
:102D7000492048414E444C45520044554D4D592040
:102D800048414E444C4552000A49535220737461E5
:102D9000636B206F766572666C6F77656400537441
:102DA00061636B20706F696E74657220636F7272FD
:102DB00075707465642C20726573657420746F205F
:102DC000746F70206F6620737461636B000A436FC9
:102DD0006E74657874206265666F726520686172D2
:102DE000646661756C743A0020202072303A20309D
:102DF000782530386C780A20202072313A203078DB
:102E00002530386C780A20202072323A203078251C
:102E100030386C780A20202072333A203078253000
:102E2000386C780A0020207231323A203078253010
:102E3000386C780A2020206C723A2030782530389F
:102E40006C780A20202070633A2030782530386C66
:102E5000780A20207073723A2030782530386C78E8
:102E60000A0A004D697363004558435F5245543A5E
:102E70002030782530386C780A00417474656D70A4
:102E800074696E6720746F207265636F6E737472FD
:102E900075637420737461746520666F7220646555
:102EA00062756767696E672E2E2E00496E20474453
:102EB000423A0A2020736574202470633D307825DF
:102EC0006C780A20206672616D6520300A202062CD
:102ED000740A000A49535220737461636B206F7641
:102EE0006572666C6F776564206279206174206C0E
:102EF000656173742025642062797465732E0A00FD
:102F000048415244204641554C542048414E444C7F
:102F10004552004641494C45442041535345525483
:102F2000494F4E2E0025700A002A2A2A2052494F66
:102F300054206B65726E656C2070616E69633A0A2D
:102F400025730A0A002A2A2A2068616C7465642E97
:102F50000A0A006D61696E28293A20546869732055
:102F600069732052494F5421202856657273696F46
:102F70006E3A20323031382E30342D646576656CEF
:102F80002D31312D6736386261352D696E72696178
:102F90002D48502D454E56592D647636290A006924
:102FA000646C65006D61696E000101000000004005
:102FB000FFFF000001000000000F000043616C698A
:102FC00062726174696E672E2E2E0A00416C6C204D
:102FD0007377697463686573206F70656E0A004368
:102FE0006F6E6E6563746564207265736973746F68
:102FF000722025690A00565F43414C5B25695D3AA2
:103000002025690A0043616C6962726174696F6EA0
:103010002066696E69736865642E00496E6974691B
:10302000616C697A6174696F6E206F6620414443F8
:103030005F4C494E4528257529206661696C656499
:103040000A005375636365737366756C6C792069E8
:103050006E697469616C697A6564204144435F4CB0
:10306000494E45282575290A004144435F4C494E85
:1030700045282575293A2025692D626974207265D5
:10308000736F6C7574696F6E206E6F7420617070F1
:103090006C696361626C650A004144435F4C494E50
:1030A0004528257529207265736F6C7574696F6E7C
:1030B0003A2025690A0043414C4942524154494F44
:1030C0004E58582569585825695858256958582523
:1030D00069585825690A0053637269707420666FD5
:1030E0007220706F776572206D6561737572656DA2
:1030F000656E74207573696E672052494F5427734B
:103100002041444320706572697068657269616C22
:103110000A00616E6420706F776572206D6561735F
:103120007572656D656E7420626F6172642E0A003F
:103130004D616B652073757265206F6620636F6EDD
:103140006E656374696F6E733A0A0020202D2053F8
:103150007570706C7920636F6E6E65637465642042
:10316000746F20564241540A0020202D2041302007
:10317000636F6E6E656374656420746F204355528F
:1031800052454E54204C4F570A0020202D204131EB
:1031900020636F6E6E656374656420746F204355A1
:1031A0005252454E5420484947480A0020202D20BD
:1031B000413220636F6E6E656374656420746F20A6
:1031C0004144435F564F4C540A0043414C20564102
:1031D0004C5545533A200A0043414C5F56414C53ED
:1031E0005B305D3A2025690A0043414C5F56414CF3
:1031F000535B315D3A2025690A0043414C5F5641DB
:103200004C535B325D3A2025690A0043414C5F56BE
:10321000414C535B335D3A2025690A0043414C5FC2
:1032200056414C535B345D3A2025690A004D656177
:10323000737572652066726F6D206C696E655B25B3
:10324000695D3A2025690A00000000500000000076
:1032500001000050010000000300005003000000C6
:1032600004000050040000000500005005000000AC
:103270000600005006000000070000500700000094
:10328000901A00086E1A00086E1A0008621A0008E8
:103290005619000856190008561A0008621A000844
:1032A00056190008561A000856190008621A000834
:1032B0005A1900085A1900085A190008701C000809
:1032C000430000003C02002000000000000000005D
:1032D00000000000000000000000000000000000EE
:1032E00000000000000000000000000000000000DE
:1032F00000000000000000000000000000000000CE
:1033000000000000000000000000000000000000BD
:1033100000000000000000000000000000000000AD
:103320000000000000000000232D302B2000686CFE
:103330004C006566674546470030313233343536D8
:103340003738394142434445460030313233343511
:0C3350003637383961626364656600003E
:10335C008C0B0020000000007C03002040000000CB
:10336C0000000000000000009F2F0008A42F0008A0
:10337C00D0070000000100000C00005000040050B9
:10338C000704005006040050010400500000000027
:10339C00C8320008E83200080833000800000000BA
:1033AC00000000000000000000000000C032000817
:1033BC000000000000000000000000000000000001
:1033CC0000000000000000000000000000000000F1
:1033DC0000000000000000000000000000000000E1
:1033EC000000000000000000000000003C02002073
:0433FC002821000084
:040000050800040DDE
:00000001FF
