:020000040800F2
:10000000000200200D040008E90300089D03000819
:1000100000000000000000000000000000000000E0
:100020000000000000000000000000007103000854
:10003000000000000000000049030008F903000868
:10004000B9000008B9000008B9000008B9000008AC
:10005000B9000008A10D0008A10D0008A10D0008BD
:1000600000000000B9000008B9000008B90000084D
:10007000B9000008B900000800000000A10E000847
:100080000000000000000000000000000000000070
:10009000B900000800000000B9000008B90000081D
:1000A00000000000B900000800000000000000008F
:1000B000690C0008B900000808B500F09DF908BDFA
:1000C00008B500F073FA08BD7047000070B50C1C4D
:1000D000061C00F05BFA094B094A1D682919914278
:1000E00002D8084A914204D20C23012533606D42A4
:1000F00000E0196000F052FA281C70BD00020020D8
:1001000000200020940B002008B5101C191C00F0E2
:100110005BFA08BD08B5101C191C00F05FFA08BD99
:100120001323036001204042704713230360012022
:100130004042704713230360012040427047002370
:1001400002220360181C8A42584170470020124B5B
:1001500010B51860114B12491A680C6853421340CD
:10016000104A5343104ADB0ED35C104A9B009B5845
:100170001B68083B9C420DD0844204D02279092A96
:1001800001D1013222710922D8881A71084A0B6004
:100190001080012010BDC046C4020020980300203A
:1001A0005003002031B57C079475000854030020EB
:1001B0004C03002030B50379082917D9082B31D812
:1001C000041C4379184A9B009D580834002D04D024
:1001D0002D6885609D582C6000E08460D450012318
:1001E0004479124AA340146823431AE0082B19D912
:1001F00044790D4BA400E258002A07D01568AA42A2
:1002000002D10022E25001E02C6814604479A2007F
:100210009B58002B06D10133A340044A14689C4329
:10022000231C1360017130BD54030020980300208B
:1002300008B5094B1B685A791B79082B01D98242F2
:1002400009D900F0AEF9002803D00122034B1A604F
:1002500001E000F06FF808BD50030020C402002048
:1002600038B5002400F092F9084B094A1B88094D63
:100270001BB29B009C50084A28681368211C013B54
:100280001360FFF797FF2C6000F050F84C0300203C
:10029000C80200205003002094030020D31803223A
:1002A00093431F4A10B51C1F2260620703D0083B0E
:1002B0001C1C1C4B23608022231F52041A601A4A04
:1002C000043B1860043B1A600022043B1A60043BA4
:1002D00003321A60043B013A1A60043B013A1A6087
:1002E000043B19600632043B1A60043B013A1A6071
:1002F000043B013A1A60043B013A1A60043B07329E
:100300001A60043B013A1A60043B013A1A60043B4C
:10031000013A1A60201C032344385B42036010BD7D
:1003200077777777888888886102000800F032F94B
:1003300001DFFEE78021034A490553680B43536000
:100340007047C04600ED00E0EFF30980EC468546BB
:100350004046494652465B46FFB4704601B4684683
:10036000E54602490968086000F002F850030020E1
:10037000FFF7ECFEEE46084800680068854601BCC1
:100380008446FFBC8046894692469B46684680F379
:100390000988F54660470000500300200F49104AC5
:1003A000104B6846904203D8984201D9002102E0E0
:1003B000091C8D46012104207246024202D1EFF34E
:1003C000088001E0EFF30980F0B443464C465546FF
:1003D0005E4678B46B4600F04DF8C046000200203F
:1003E000002000205801002008B50420014900F039
:1003F000EDF9C046B475000808B50620014900F0C3
:10040000E5F9C046C07500087047704708B5FFF7AA
:10041000FBFF6A46104B934202D2104902C3FAE72F
:1004200000220F4B0F49D3188B4204D20E49895832
:1004300004321960F5E70D4B0D4A934202D20022B7
:1004400004C3F9E7FFF7E1FF00F0BAF904F0D8FBC5
:1004500000F0F0F908BDC04600000020FEE7FEE70E
:1004600000020020C4020020187D0008C402002001
:10047000940B0020F0B58DB00B93364B0A921A689E
:10048000354B041C03919A4202D0344805F0D6F84B
:10049000039B002B05D00025314805F0CFF82E1C1A
:1004A00024E0251C2368E76904936368A669059323
:1004B000A36824350693E368079323690893636967
:1004C0000993BB0500D4043D264805F0B7F8079B07
:1004D00004990093059A069B234805F019F80097A4
:1004E00022480899099A331C05F012F8204805F0B3
:1004F000A5F820480A9905F00BF8039B002B23D19F
:100500001D4805F09BF8311C1C4805F001F86946B0
:10051000104BC91A1A4BC91803D54942194804F09F
:10052000F7FF0B9B1E1C201C8268C36801698C4668
:1005300041698E46AD46311CF0C9A046A946B24677
:10054000BB46F0C94168006801BE05200E4900F0B5
:100550003DF9C04600000020FEE7FEE7CE7500082A
:10056000E4750008137600082E7600086B76000804
:10057000A9760008AE760008C0760008F17600087B
:10058000A8FEFFFF1977000846770008EFF31080F8
:1005900072B6704762B6EFF31080704780F3108830
:1005A0007047EFF30580C0B270470000E12108B545
:1005B00000204902024A034B00F0ECFA08BDC04695
:1005C000D10A00080402002008B5031C0A1C0248D6
:1005D000191C00F088FA08BD0402002010B5031CA5
:1005E0000C1C0020191C221C00F024FB201C10BD38
:1005F00008B5002000F016FC08BD000008B5044B4B
:100600001968002903D182B2081C00F0EBFB08BD79
:10061000E0030020F7B58022274D52022B68019598
:100620009B182B602B68002B03D1244A13680133DD
:1006300013600020224B234C1A6818602368224E56
:10064000191C3260002904D01C4F8D683F68BD42E0
:1006500003D9216000280BD12DE0019D2D68AC4607
:100660004D682F0C3F046745F3D1081C0968E9E782
:10067000002101608A421DD0111C002B04D050685B
:100680005C68A04200D9191C081C12681B68002A6B
:1006900001D103600CE0002B01D1026008E0556835
:1006A0005F68141CBD4200D91C1C0460201CECE7D0
:1006B000316000E03360F7BDE4030020E803002070
:1006C000DC030020F0030020EC030020F8B5012338
:1006D0002E4E2F4C33602368002B07D1FFF79AFF73
:1006E000FFF786FF2B4B9842FAD033E0FFF780FFED
:1006F000051C11E0BFB2874205D923685F68FFF788
:1007000077FFA842F6D223681A681869226000228F
:100710005A609A60DA6890472368002B04D1FFF78B
:1007200067FF85420CD913E05F68FFF761FFA842BD
:10073000E3D3BBB28342E0D91B1A132BEFD8DCE71B
:100740002368002B08D1FFF753FF071EAF420BD2DF
:10075000FFF760FF0025DFE75F68FFF749FF143F01
:1007600014308742D8D30AE0031C14339BB283426F
:1007700004D2FFF73DFFB842FBD2E9E7054F002363
:10078000381C3360FFF73AFFF8BDC046E003002095
:10079000EC030020FFFF0000002008B50449054AD3
:1007A000031C00F051FB01204042FFF727FF08BD6A
:1007B00040420F00CD06000808B5FFF7E7FEFEE750
:1007C00008B500F025F908BD704700000D4B10B5C5
:1007D0001A680C1C002A0ED101321A60032803D1BA
:1007E0007146094804F094FE0848211C04F090FE6C
:1007F000074804F08DFEFFF7C9FEFFF7E5FFFFF79E
:10080000DBFFC046F40300206B7700086F77000819
:100810008B77000808B500F07FFC034804F078FEF1
:1008200000F0B8FB002008BD9977000808B500F07B
:10083000DFF8FCE71FB50024FFF7A8FE80210D4B71
:10084000019400930C4B49001B680F2202930B4844
:100850000C2300F04FF8C021094B01940093094B81
:10086000C9001B680722029307480C2300F042F8D6
:10087000FFF75CFD2D08000818020020F803002097
:10088000150800081C020020F804002008B5FFF736
:100890007DFE094B1B681A79082A07D95B79074A3C
:1008A0009B009958002901D009689950FFF776FEFE
:1008B000FFF740FD08BDC046500300205403002050
:1008C00038B50B79082B03D903200949FFF77EFFC0
:1008D0000A1C4C7908320368002B06D01D1C083D09
:1008E0006D79A54201D8181CF5E78B60026038BD10
:1008F00059770008F0B587B0051C02910392049364
:100900000F2A68D803230340191E029B04D0042237
:10091000531A029AC518D31A0322303B9343059306
:10092000EC18049B1B0705D52B1CA34203D21B60AC
:100930000433FAE72D60FFF729FE0123071C9AB262
:100940000192274A99005658002E28D16B469B8861
:100950008C500C98E3800D992A1C059BFFF79EFC98
:10096000029B0121E3620E9B1E4AA3626B461B7B26
:100970002060637101235B42E361136865620133A8
:100980001360049B2671A660E66026616661A6611D
:1009900026620B420BD0201CFFF70CFC16E0013343
:1009A000212BCCD1381CFFF7F9FD0F4814E0201C97
:1009B0000A21FFF7FFFB049B5B0707D4381CFFF7F6
:1009C000EDFD6B469889FFF733FC02E0381CFFF71A
:1009D000E5FD019800E0054800B207B0F0BDC04653
:1009E000C80200209403002075FF0000EAFF000009
:1009F0000421064A08B513698B431361FFF7C6FD4E
:100A0000BFF34F8F30BFFFF7C9FD08BD00ED00E019
:100A100038B500F0D9FB8022284C52002368284DBD
:100A200013432360E3682B40E3602268254B1340A7
:100A3000236000230122A3612368134323602368FA
:100A40005B07FCD50221204B00201A680A431A607C
:100A50001A6801390A4380211A60490500F062F8DA
:100A600080221A4B12011A605A68D206FCD48822DE
:100A7000E368D203E360E368E360E368E360E368AC
:100A80001D40E560E36813438022E360236852045D
:100A9000134323602268094B9201FBD50320D968D8
:100AA0008143D960DA680243DA600C23E2681340BC
:100AB0000C2BFAD100F041FA38BDC04600100240BC
:100AC000FFFF02FFFEFFF2FE002002400070004028
:100AD00038B5041C043000F01DFA051C201C00F081
:100AE0004FFB281C38BD70B5041C0E1C151C201DA6
:100AF000311C2A1C00F0F8F9002804D1201C012127
:100B000000F00EFBF3E770BD004870470048E801B5
:100B1000024B185C024B58437047C046EF77000801
:100B20000048E80100B5032813D80B4B01F0A0FDE5
:100B300002060A0E9A6B114399630AE05A6B11433D
:100B4000596306E01A6B1143196302E0DA6A114334
:100B5000D962BFF34F8F00BD0010024000B50328DB
:100B600014D80B4ACB4301F083FD02060A0E916BA9
:100B70000B4093630AE0516B0B40536306E0116B2B
:100B80000B40136302E0D16A0B40D36200BDC04644
:100B90000010024070B5041C0E1C151C002803D068
:100BA00003201E49FFF712FE1D4A01211560536004
:100BB0001C4800F077F81B4800F0EAF819480421B7
:100BC00000F0ADF8002D07D0211C174800F06AF89E
:100BD0001548042100F0A3F8802100208902FFF7C6
:100BE000A1FF0020114C20606060A060FFF78CFF27
:100BF000311C01F047FD0F2203091B051B0C10409F
:100C00001843E0600923002D04D08022084B5205D0
:100C10001A602D230020236070BDC046597700085C
:100C2000F80A0020020000500F000050004400406D
:100C300000E100E008B58A1800280AD0032008491E
:100C4000FFF7C4FDD8690006FCD50878054B0131D3
:100C50009862044B9142F5D1DA695206FCD508BD81
:100C6000597700080044004038B50B4CE569AB06E5
:100C700005D50A4B616A1A68C9B2586890470822BC
:100C8000154202D0236A13432362054B1B68002BD5
:100C900001D0FFF7FBFD38BD00440040F80A0020FA
:100CA000C4020020F7B50F230125041C071C0E1CED
:100CB000810A9C431F400B40291C03209940FFF7E9
:100CC00031FF032279008A409446D24320680323EF
:100CD0001040206020680190301C18408840019B23
:100CE000184303232060E0680240B00803408B40B3
:100CF000191CE260E268360911432A1C3540BD40E8
:100D0000BA402F1CE1606368002093436246636031
:100D100063681F436760A3681343A360FEBD70B59B
:100D20000F240323051C20404600B340A5432A6836
:100D30009A430223B3402A602A68134307222B6098
:100D400082429B411040221C800081408240081C4E
:100D50005B429B00EB181D6A95431D621A6A1043A3
:100D6000186270BD38B50F240123810A21408B40E1
:100D7000051C191C0320FFF7D5FE291C0322A143E3
:100D80002C406400A240141C0B681C430C6038BD4E
:100D90000F23021C9A430340012098409061704742
:100DA00070B500240C4D6E692B681E400123A340D2
:100DB0001E4206D06B61094BE20099184868D3586F
:100DC00098470134102CF1D1054B1B68002B01D042
:100DD000FFF75CFD70BDC04600040140000B002021
:100DE000C402002010B5032916DC0D4C0001035984
:100DF000201840680240081C0C308000181842601F
:100E000002228A401869111C021C8A431A61DA689E
:100E100000201143D96001E00120404210BDC046CE
:100E2000F4770008024B0001C358586A7047C04667
:100E3000F47700080121034B0001C25813680B43EB
:100E400013607047F477000870B500281FD1802523
:100E5000041C0E1C0F49ED050CC10121FFF762FEB9
:100E60000D4B2C60201C6C60EB62FFF751FE311CB7
:100E700001F008FC012380220138A8626B61074B56
:100E80001202201C1A60FFF7D5FF201C01E0012090
:100E9000404270BD800B0020FFFF000000E100E039
:100EA00038B580230024DB051D69DB681D40022363
:100EB000A3401D4209D08021C905CA689A43084B46
:100EC000CA6058681A68211C90470134042CEED17E
:100ED000044B1B68002B01D0FFF7D8FC38BDC0467F
:100EE000800B0020C402002030B5141C002C0FD051
:100EF0008568C3689D420BD08568013C6B1C83608C
:100F00004368013B2B400568EB5C0B700131EDE75A
:100F1000101B30BDC26830B543688468121B9A420A
:100F200008D0C2680468013B551C1340C560E154F9
:100F3000002001E00120404230BD704738B5054C2B
:100F400000202568FFF76EFF2368AB42F7D11843F6
:100F500038BDC046E403002070B5041CFFF7EEFF67
:100F6000061C201C03F0D6FC0022094B02F0BEFE3A
:100F7000041C0D1C301C801B03F008FD221C2B1CC4
:100F800001F028FC002802D0FFF7D8FFF3E770BD7E
:100F900000408F40F0B54F4885B004F04FFB4E48FD
:100FA00004F04CFB002000F055F900280BDB4B4C03
:100FB0000021201C04F0ACFA012000F04BF90121C3
:100FC000002806DA00E00021454804F0A1FA0120DB
:100FD0007EE00121201C04F09BFA0020011C00F09F
:100FE0006FF900280DDB3F4C00210C22201C04F07F
:100FF0008FFA0021012000F063F90121002807DAAF
:1010000000E0002138480C2204F082FA00205FE062
:10101000201C01210C2204F07BFA344B344802934B
:10102000344B039304F074FA00240021201C00F0D8
:1010300047F980210022304B051CC905002000F033
:10104000C3F9061C0F1C281C01F0A2FE03F0D0FC03
:101050002A4A2B4B02F04AFE321C3B1C02F008FAD3
:1010600003F01AFD6B46A500E85003F0C1FC08260A
:101070000B1C69468919021C4959224804F048FA98
:10108000012C01D00124D0E70199009801F002FD64
:10109000041C03F0ADFC00221B4B02F027FE021CD7
:1010A0000B1C1A4804F034FA201C194901F0BAFB51
:1010B00003F09EFC0022144B02F018FE021C0B1CD5
:1010C000144804F025FAFA20C000FFF745FFABE70B
:1010D00005B0F0BD047800083D780008C478000829
:1010E000EB780008127900082F7900085F79000872
:1010F0006979000864790008000028406666666621
:1011000066660A408579000800408F4093790008A0
:101110006666E63EAD79000808B5FFF73DFB08BD01
:1011200070B5051C0C1CFFF731FA2B68061C002B50
:1011300004D1013B2B60FFF731FA19E0002C19D0E4
:101140000E4B02211C68201CFFF734F82B6801337A
:1011500005D1231C08332B600023A36003E0281C67
:10116000211CFFF7ADFB301CFFF718FAFFF7E2F880
:10117000012002E0FFF712FA201C70BD500300208E
:1011800070B5051CFFF702FA061C2868002803D07A
:10119000431C05D100232B60301CFFF7FFF912E040
:1011A00003680A212B600838041CFFF703F82B683A
:1011B000002B01D1013B2B606479301CFFF7EEF965
:1011C000201CFFF735F870BD184A194B116A70B52D
:1011D0000B408021C9030B4380211362D369C905E9
:1011E0001B021B0A0B43141C0021D3618B08114AFC
:1011F0009B009B180322FF20C0260A40D20090408B
:10120000B6009D590131854340209040021C2A437D
:101210009A511E29EAD1102223691343236163697D
:10122000F132FF321343636170BDC04600ED00E050
:10123000FFFF00FF00E100E008B501210448FFF7CF
:101240006FFF802101208900FFF76CFC08BDC046BC
:10125000880B002010B5062826D8041CFFF7ECFFE9
:10126000134AE00013181B79113B012B02D9805857
:10127000FFF778FDC82100240E4B0F4A0904DC60FB
:101280001C61116007215A6901200A435A611A68DA
:1012900003390A43FD311A60FF31FFF75FFC07484D
:1012A000FFF76EFF201C01E00120404210BDC04648
:1012B000C87900080024014008270140880B00205D
:1012C00018230A1C70B59A436ED10C1C051CFFF73D
:1012D000B3FF374B9A68D20704D49A683449D207CF
:1012E00008D50FE002219A680A439A609A68D207EB
:1012F000FCD4F2E780208A68000602438A609A687C
:10130000002AFCDB01211A680A431A60294A9A6004
:101310001A68D207FCD5284AE80011180979112962
:1013200004D18026254DF603296805E0122905D150
:101330008026224D3604296831432960182110186F
:101340000122DD688D43DD60DD6821402943D960DD
:10135000017904208A409A621968014319609A68E9
:1013600002439A601968124A4907FBD5146C9168C8
:10137000C9070AD50220916801439160012298684B
:101380000B490240FAD18A600A600C4A0C4B116882
:1013900001200B40802113608900FFF7DFFB094823
:1013A000FFF7EEFE201C01E00120404270BDC04668
:1013B0000024014001000010C879000808270140FE
:1013C000FFFF3FFF880B0020F0B546465746C0B4EC
:1013D0008FB01F1C02900391161C00F0A3F9041C8F
:1013E0000D1CC84B0094019598461B785BB20133E5
:1013F00005D0301C391C00F0DFFF002806D1009812
:1014000001990FB00CBC90469A46F0BD0298039922
:1014100000F0D2FF8246002831D1301C391C002256
:10142000002301F0D1F90028E9D001230493B64B41
:1014300004AD6B60534600222B62029B039CAB60A1
:10144000EC60B24B2E616F61AA61EB6143461B7881
:101450005BB25A1C0ED0022B0CD0281C00F0DAFF15
:10146000002800D180E02B6A002B03D003F0C2FBE0
:101470002B6A0360AB69EC6900930194BFE70298A3
:1014800003990022002301F09FF9002822D0301C8C
:10149000391C0022002301F097F9041E2CD00123EF
:1014A0000493994B04AD6B6000232B62029B039C59
:1014B000AB60EC6000230024AB61EC6143461B7819
:1014C0002E616F615BB2002BC7D000228F4BAA61E7
:1014D000EB61CFE7201C291C00F064FF8246002846
:1014E00047D0201C291C0022002301F06DF90028A0
:1014F00066D10094019582E7301C391C00F052FF40
:10150000002800D17BE7301C391C0022002301F0A9
:1015100061F9002800D172E7012304937A4B04ADEE
:101520006B602C62029B039CAB60EC6043461B78B3
:101530002E616F61002B75D100230024AB61EC613B
:10154000281C00F067FF002872D02B6A002B91D076
:101550008CE700200021021C0B1C01F089FFA86110
:10156000E961022C00D078E703F044FB21230360FB
:1015700079E70298039900F015FF0028B1D0301CDC
:10158000391C00F00FFF0028ABD0291C201C00F0F4
:1015900013FF04AD002850D1012304935A4B286255
:1015A0006B60029B039CAB60EC6043461C782E6131
:1015B0006F61002CCDD100230024AB61EC614CE7BE
:1015C0000298039900F0EEFE00940195002800D1E6
:1015D00015E7301C391C00F0E5FE00940195002849
:1015E00000D10CE704230493474B04AD6B60002348
:1015F0002B62029B039CAB60EC6000230024AB6178
:10160000EC6143461B782E616F615BB2022B04D004
:10161000281C00F0FFFE002897D103F0EBFA2223EC
:10162000036092E700203A49A861E961022B87D163
:1016300003F0E0FA2123036087E703230493324B8E
:101640002E616F616B6053462B62029B039CAB6003
:10165000EC6043461B785BB2002B1CD102980399C7
:10166000E0222C4B1206AA61EB610022002301F05C
:10167000B1F8002830D143461B785BB2022B05D06D
:10168000281C00F0C7FE002800D0ECE603F0B2FAF8
:1016900022230360E7E60022029803991E4BAA6109
:1016A000EB610022002301F095F80028E3D000222E
:1016B0001A4B301C391C02F019FB061C0F1C00F0E1
:1016C000B1FE321C3B1C01F07FF80028D3D1002270
:1016D0000F4BAA61EB61CEE70022104B301C391C86
:1016E00002F004FB061C0F1C00F09CFE321C3B1C8D
:1016F00001F06AF80028BED1E022094B1206AA6167
:10170000EB61B8E720020020007A00080000F03FFB
:101710000000F0FFFFFFEF470000F07F0000E03F18
:10172000FFFFEFC7F0B556464D4644465F46F0B45E
:101730001C1C131C67008DB07F0800930194061CCD
:101740000D1C80468946A2463B4331D0614B6C005C
:1017500064089C4228DC25D09F4225DC5D4B9F42DB
:1017600000D176E000239B464B46002B00DA74E064
:10177000002A2CD1574B9F4200D18AE0564B9F4202
:101780005FD08023DB059A4501D100F0D1FB534B9C
:101790009A451CD14B46002B19DB301C291C00F04C
:1017A00007FD07E000280CD04D4BE01830430AD16C
:1017B000002049490DB03CBC90469946A246AB4634
:1017C000F0BDA742CADD474800F026FEF2E7301C14
:1017D000291C00F0E3FD0B1C4146021C00291ED011
:1017E000E90F0139884659464046014366D03E49D3
:1017F0008F4200DC88E03D498F4201DC00F0E0FBD5
:101800003B4B9C4200DC82E35346002B00DC82E32E
:1018100038483949021C0B1C02F068FACAE7002C50
:1018200004D02D48A90089088142D9D15146002908
:1018300000DABBE34946002900DA6FE3101C191CEB
:10184000B8E75346002B01DA00F020FC301C291CBD
:10185000B0E7002A00D185E7A6E7284B9F422ADCA3
:10186000234B9F4200DC83E725493815884201DC81
:1018700000F027FC234B00991B1AD940081C984004
:10188000904200D074E70123194001335B1A9B4654
:101890006EE7134BE018064300D189E7144B9C42D6
:1018A00000DC75E35346002B00DA34E3009B019C17
:1018B000181C211C7EE702239B4659E7301C291C7B
:1018C000321C2B1C02F0ACFC021C0B1C01F0D0FDE6
:1018D00070E7C0460000F07F0000F03F0000E03FEE
:1018E000000010C0387A00080000E0410000F0431A
:1018F000FFFFEF3F9C7500883CE4377EFFFF3F43CE
:101900001304000033040000E94900208C4209DC84
:10191000101C191C0022E74B02F0E8F9021C3520CC
:101920000C1C4042E44D2115AC4661448A46240318
:10193000E24DE349240B824425438C4200DC3CE326
:10194000E0498C4201DC00F021FC01218C46DE499B
:10195000E2448C46002400216544CB009946161CC5
:101960002F1CDA4B301C4B441A685B68291C069606
:1019700007970892099302F053FC089A099B061CEA
:101980000F1C0698079901F04BFA021C0B1C002053
:10199000CA4901F06DFD021C0B1C301C391C0A9257
:1019A0000B9302F0A3F90A1C011C131C049105926D
:1019B00000220292039380236D109B051D43802318
:1019C00000201B03EB1819190D1C041C0298039925
:1019D000221C2B1C02F08AF9021C0B1C301C391C27
:1019E00002F01EFC089A099B061C0F1C201C291CD7
:1019F00002F016FC021C0B1C0698079902F010FC62
:101A0000021C0B1C0298039902F070F9021C0B1CBB
:101A1000301C391C02F004FC0A9A0B9B02F066F998
:101A2000049A059B06900791101C191C02F05EF9A0
:101A3000041C0D1C221C2B1C02F058F9A44A061C85
:101A40000F1C201C291CA34B02F050F9A24AA34BE7
:101A500001F0E6F9221C2B1C02F048F9A04AA14B28
:101A600001F0DEF9221C2B1C02F040F99E4A9F4B2C
:101A700001F0D6F9221C2B1C02F038F99C4A9D4B30
:101A800001F0CEF9221C2B1C02F030F99A4A9B4B34
:101A900001F0C6F9021C0B1C301C391C02F026F99F
:101AA000049A059B041C0D1C0298039901F0B8F9D7
:101AB000069A079B02F01AF9221C2B1C01F0B0F9C0
:101AC000029B039C061C0F1C1A1C181C211C231CA7
:101AD00002F00CF90A1C011C894B08910992111C97
:101AE000002201F09DF9321C3B1C01F099F9002401
:101AF0000D1C02980399221C2B1C02F0F7F8221CE3
:101B00002B1C029003910698079902F0EFF800222F
:101B1000069007917A4B201C291C02F081FB089A41
:101B2000099B02F07DFB021C0B1C301C391C02F0CF
:101B300077FB049A059B02F0D9F8021C0B1C06984F
:101B4000079901F06DF9061C0F1C02980399321CCD
:101B50003B1C01F065F90024E022201C1206694BB1
:101B60000D1C02F0C3F8684A06900791674B201CD1
:101B7000291C02F0BBF8029A039B04900591201CDB
:101B8000291C02F04DFB021C0B1C301C391C02F0FE
:101B900047FB5F4A5B4B02F0A9F8021C0B1C049840
:101BA000059901F03DF95B4B4B441A685B6801F005
:101BB00037F9061C50460F1C02F0ACFE041C0D1C2D
:101BC00006980799544B4B441A685B680492059336
:101BD000321C3B1C01F024F9049A059B01F020F90A
:101BE000221C2B1C01F01CF90020221C2B1C029033
:101BF000039102F015FB049A059B02F011FB069A73
:101C0000079B02F00DFB021C0B1C301C391C02F060
:101C100007FB049005915B464246013B134300D00D
:101C2000B1E100233D4C06930794009B019C0026E4
:101C3000181C211C231C321C02F0F2FA029A039B8E
:101C400002F054F8049A059B0D1C271C041C0098F4
:101C5000019902F04BF8021C0B1C201C291C01F0FE
:101C6000DFF8029A039B00900191301C391C02F0AE
:101C70003DF8041C0D1C009801992B1C221C01F03E
:101C8000CFF8274B82468946994200DC58E1254B24
:101C90004B44034300D001E200980199224A234BB0
:101CA00001F0BEF8221C061C0F1C2B1C40E0C04695
:101CB000FFFF0F000000404301FCFFFF0000F03F6A
:101CC0008E98030079B60B000000F0FF287A000818
:101CD000EF4E454A287ECA3F65DBC9934A86CD3F11
:101CE00001411DA96074D13F4D268F515555D53FF7
:101CF000FFAB6FDBB66DDB3F033333333333E33F8F
:101D00000000084009C7EE3FF5015B14E02F3EBE1E
:101D1000FD033ADC187A0008087A00080000F0BFDA
:101D2000FFFF8F40000070BFFE822B654715973C78
:101D30005046494602F074FA021C0B1C301C391C38
:101D400000F05CFD4E46002800D0A7E1E74B3615B9
:101D5000F11880235B0398460B41191CE448494461
:101D600084464F007F0DBC446646E2480022304165
:101D70000E1C864340460903090B08434946331CA1
:101D8000CE0FDD49C91B0841011C70424140894604
:101D9000201C291C02F044FA041C0D1C0098019917
:101DA0002B1CB144221C01F03BF84B461B05984606
:101DB00000200022D14B061C0F1C01F097FF221CB3
:101DC000029003912B1C301C391C02F029FA021CD2
:101DD0000B1C0098019902F023FAC94AC94B01F083
:101DE00085FFC94A041C0D1C301C391CC74B01F06F
:101DF0007DFF021C0B1C201C291C01F011F8041C87
:101E00000D1C02980399221C2B1C01F009F8029A60
:101E1000039B061C0F1C02F003FA021C0B1C201C67
:101E2000291C02F0FDF9321C009001913B1C301C72
:101E3000391C01F05BFF041C0D1CB54AB54B01F0C9
:101E400055FFB54AB54B02F0EBF9221C2B1C01F0F3
:101E50004DFFB34AB34B00F0E3FF221C2B1C01F0F3
:101E600045FFB14AB14B02F0DBF9221C2B1C01F0FB
:101E70003DFFAF4AAF4B00F0D3FF221C2B1C01F0FB
:101E800035FF021C0B1C301C391C02F0C9F9041C64
:101E90000D1C221C2B1C301C391C01F027FF802339
:101EA000029003910022201C291CDB0502F0B8F9E6
:101EB000021C0B1C0298039901F0DAFA009A019BAC
:101EC000041C0D1C301C391C01F010FF009A019BF2
:101ED00000F0A6FF021C0B1C201C291C02F0A0F91C
:101EE000321C3B1C02F09CF90B1C021C9249002086
:101EF00002F096F943465C182315002B00DC4FE1F5
:101F0000021C231C0698079901F0F0FE52E4534688
:101F1000002B00DA7CE4002000214BE487498C464A
:101F2000594664440C4300D0C4E0101C191CC9E499
:101F3000301C291C321C2B1C01F0D8FEFFF73AFC88
:101F40007F4B4E0076089E4200DC17E17D4B4B44F0
:101F500003430CD1221C2B1C02F062F9021C0B1C47
:101F60000098019900F040FC002800D1EEE60698A8
:101F70000799754A754B01F0B9FE734A734B01F02E
:101F8000B5FEFFF717FC00236B4C069307944CE655
:101F90005346002BBFDA009B019C80221206181CBE
:101FA0009446231C6344191CFFF704FC002062497B
:101FB00001F05EFA021C0B1C3CE400240021CCE47E
:101FC00063498C42A3DD5C498C4201DDFFF71CFCB8
:101FD000101C191C0022584B02F022F9C0225D4B44
:101FE000D205041C0D1C01F081FE5B4A061C0F1C6F
:101FF000201C291C594B01F079FE221C02900391F0
:102000002B1C201C291C01F071FE0022049005915C
:10201000534B201C291C01F069FE021C0B1C51486B
:10202000514902F0FDF8221C2B1C01F05FFE021C3E
:102030000B1C00204D4902F0F3F8021C0B1C049805
:10204000059901F053FE4A4A424B01F04FFE021C33
:102050000B1C0298039902F0E3F8041C0D1C221CCF
:102060002B1C301C391C00F0DBFE0022101C3B1C1A
:10207000321C0290039102F0D3F8021C0B1C201CAE
:10208000291C02F0CDF804900591C4E5321C2B1CEC
:102090000020294901F0ECF9FFF78CFB069807991D
:1020A000344A354B01F022FE324A334B01F01EFE1A
:1020B000FFF780FB5946101C01296CD0191CFFF753
:1020C00079FB002A01D0FFF782FB3A1C091A0A416A
:1020D000131C8B40BB4201D0FFF750FB0123134080
:1020E0000222D31A9B46FFF749FBC04602FCFFFFC2
:1020F00001FCFFFFFFFF0F0013040000432EE63F2B
:10210000EF39FAFE422EE63F396CA80C615C20BE26
:10211000D0A4BE726937663EF16BD2C541BDBB3EED
:102120002CDE25AF6A56113F93BDBE166CC1663FCB
:102130003E5555555555C53F0000F03F000010C0B5
:10214000FFCB904000346F3F59F3F8C21F6EA501DA
:10215000FEFFEF3F4715F73F44DF5DF80BAE543EFF
:102160000000D03F555555555555D53F0000E03F2F
:10217000FE822B659C7500883CE4377E0B4B9E42AB
:1021800000DDE3E500239846994611E6802401210D
:10219000E402FFF7E2FB802109065918FFF70AFB6A
:1021A0004A4600F0E1F9021C0B1CABE60000E03FE0
:1021B000F0B556464D4644465F46754BF0B40A1C92
:1021C0000E1C191C83B0051C041C3140994200D11F
:1021D000B7E0002E00DC93E0311500D1A0E06D4B9C
:1021E0001203CE188023120B5B031A43F30700D5AA
:1021F00077E0731052009846E30FD318802216211F
:102200000027002564009203A818984202DC851874
:102210001B1ABF18E00F5B0001391B18640052083D
:102220000029F1D10022019294468022120620203A
:10223000924609E0AB4247D0E10F5B0001385B18E2
:102240006400520800281ED0614689189D42F1DAC8
:102250008E18B446CE0FF607A94656452ED05B1B06
:102260008C42AD416D425B1B641A01995B008B4649
:102270009344594601380191E10F4D465B186400C3
:1022800052080028E0D1234330D1019B5B0842492A
:102290007A108C466244F90702D5802109060B4367
:1022A00041460E05B1181D1C0E1C281C311C03B024
:1022B0003CBC90469946A246AB46F0BD6646002E11
:1022C000CDDB6E1CB146CAE7A14208D88E18B446D1
:1022D000CE0FF607564541D099460023C4E71D1C92
:1022E000AAE7E30F5200D218640082E7019B013392
:1022F0003AD0019A01239446134063445B08C6E731
:1023000073005B080343D0D00021002E33D1E20AD2
:1023100015396405002AFAD080235B031A4226D1BE
:10232000802000234003520001330242FBD00125EC
:102330002020ED1AC01A4919251CC5409C402A438B
:102340004DE72A1C331C281C311C01F0CFFC2A1C31
:10235000331C00F065FD051C0E1CA6E76646002E2A
:10236000AFDA0023A9467FE7013700238FE720205B
:1023700001250023DFE72A1C331C281C311C01F037
:102380004FFF021C0B1C01F073F8051C0E1C8CE7A0
:102390000000F07F01FCFFFF0000E03F49004B0818
:1023A000191C7047034B48009C4640086044C00F0E
:1023B0007047C046000010800A1C031C024330B561
:1023C0000220002A00D130BD80221206914216D090
:1023D0000C4A04208C180C4A9442F4D90B4C0C196A
:1023E0009442F0D90A4A4900490803209142EAD9A7
:1023F000064A00209142E6D158425841E3E7002BBB
:10240000E1D0EFE70000F0FFFFFFDF7F0000F07F8B
:10241000FFFF0F0000207047002001497047C046B1
:102420000000F87FF0B5474680B44B004A4A5B0D88
:102430009D1882B0071C0C1CCE0F132D39DC002D0B
:1024400059DB464F021C2F413B1C0B4003439C466B
:10245000B84667460B1C002F25D043465B081A1C64
:102460000A4010430027002808D0132D00D16FE048
:1024700099438023DB022B4119430C1C3849F60099
:102480008E19231C346875683A1C201C291C00F026
:10249000C7FC0090019100980199221C2B1C01F0AF
:1024A000BFFE021C0B1C101C191C02B004BC904681
:1024B000F0BD332D0BDD0B1C8021021CC9008D42A9
:1024C000F1D1211C00F0ACFC021C0B1CEBE7254AEF
:1024D0009D1801235B42EB409C460B1C6146021C8D
:1024E0000142E0D04B080342C8D08027FF052F41AE
:1024F00098430743C2E74C0064080443021C0B1CCA
:10250000002CD0D00903090B01434A421143802219
:10251000090B12035B0C11405B04021C19431048A9
:102520000B1CF10041180C684D68201C291C00F0A0
:1025300077FC0090019100980199221C2B1C01F05E
:102540006FFE4B005B08F6071E43021C331CAAE714
:1025500080273F068CE7C04601FCFFFFFFFF0F000E
:10256000407A0008EDFBFFFFF8B5314F161C3B1C0D
:102570000B40041C0D1C0A1C1B1520D14B005B08D2
:1025800003431BD000222B4B01F0B0FB2A4B041C51
:102590000D1C0A1C9E4222DB0F403F153B1C2749A5
:1025A000363B9B198B4211DD221C2B1C24482549EC
:1025B00000F056F8224A234B01F098FBF8BD22495F
:1025C0008B4222D01D499B198B42EDDC002B0BDD89
:1025D0001E491B050A401343201C191CEEE71C4A28
:1025E0001C4B01F083FBE9E7191C353113DA1A4B58
:1025F0009E42D9DC221C2B1C1548164900F030F8ED
:10260000134A144B01F072FBD8E7291C221C2B1C27
:1026100000F006FCD2E70D4936330A401B05134390
:10262000201C191C00220D4B01F060FBC6E7C046C0
:102630000000F07F00005043B03CFFFFFE070000A9
:102640009C7500883CE4377EFF070000FFFF0F8089
:1026500059F3F8C21F6EA50150C300000000903C62
:1026600030B54A00DB0F5208DB071343191C30BD9D
:1026700002B4714649084900095C49008E4402BC15
:102680007047C046002243088B4274D303098B4233
:102690005FD3030A8B4244D3030B8B4228D3030C32
:1026A0008B420DD3FF22090212BA030C8B4202D3D4
:1026B0001212090265D0030B8B4219D300E0090AFC
:1026C000C30B8B4201D3CB03C01A5241830B8B4205
:1026D00001D38B03C01A5241430B8B4201D34B03EE
:1026E000C01A5241030B8B4201D30B03C01A524153
:1026F000C30A8B4201D3CB02C01A5241830A8B42D8
:1027000001D38B02C01A5241430A8B4201D34B02C0
:10271000C01A5241030A8B4201D30B02C01A524124
:10272000CDD2C3098B4201D3CB01C01A52418309D8
:102730008B4201D38B01C01A524143098B4201D312
:102740004B01C01A524103098B4201D30B01C01A3D
:102750005241C3088B4201D3CB00C01A52418308B7
:102760008B4201D38B00C01A524143088B4201D3E4
:102770004B00C01A5241411A00D201465241104644
:102780007047FFE701B5002000F00CF802BDC0461D
:102790000029F7D003B5FFF775FF0EBC4243891A35
:1027A0001847C0467047C0468446101C62468C4697
:1027B000191C634600E0C0461FB501F031FA00283D
:1027C00001D40021C8421FBD10B501F075F9404287
:1027D000013010BD10B501F023FA002801DB002004
:1027E00010BD012010BDC04610B501F019FA002837
:1027F00001DD002010BD012010BDC04610B501F064
:102800009FF9002801DC002010BD012010BDC0464A
:1028100010B501F095F9002801DA002010BD012063
:1028200010BDC046F0B556464D465F464446F0B42E
:1028300043024500C70F83B08A465C0A2E0EB94694
:1028400041D0FF2E26D080231B042343DC0000232D
:1028500098469B467F3E53465B025D0A53465A00AC
:10286000DB0F120E9A4639D0FF2A33D080231B0487
:102870002B43DD0000237F3A5146B21A4646794089
:10288000081C01921E430F2E00D976E07E4AB60046
:102890009659B746002C30D108239846063B9B46F4
:1028A000D9E780230021DB03FF245B02E4055B0AF8
:1028B000C90723430B43181C03B03CBC9046994600
:1028C000A246AB46F0BD002C28D104239846033B1A
:1028D0009B46C0E7002D1FD1022302E0002D11D13D
:1028E0000123B21A50464646784001921E430F2EED
:1028F00027D86649B60089598F460C239846093B6C
:102900009B46A8E7281C02F057F97622431F524243
:102910009D40121A0023AFE70323ADE7201C02F00D
:102920004BF9431F9C4076235B421E1A00239846B6
:102930009B4690E70025D1469B465B464846022BC6
:102940006FD10121FF2401400023AEE77E23019ACD
:102950005B429B1A1B2B6DDD01214B461940002465
:102960000023A2E78023DB031C4249D18023DB0341
:1029700023435B025B0A391C96E763016D01AB429E
:1029800037D389461A2001215B1B01241E1C4900F4
:102990005B00002E01DBAB4201D35B1B21430138FE
:1029A0000028F3D1581E83410B431D1C019C7F342A
:1029B000002CCBDD6B0704D00F232B40042B00D061
:1029C00004352B0104D5019A314B8032141C1D4073
:1029D000FE2C07DD4B460121FF241940002364E74C
:1029E000251CAAE701214A46AB015B0AE4B211406B
:1029F0005BE7019A8946013A01921B200021C4E756
:102A00001D4207D023435B025B0A391C4CE70025BB
:102A10006302ABD58023DB032B435B025B0A514689
:102A200042E7032B25D0012BC0D101210024014016
:102A300000233AE7291CD9402B1C019A9E3293406F
:102A40005D1EAB410B435A0704D00F221A40042AE3
:102A500000D004335A0105D54B4601210124194009
:102A6000002322E701214A469B015B0A1140002412
:102A70001BE7802301214A46DB032B435B020A400C
:102A80005B0A111C10E7C046507A0008907A0008D3
:102A9000FFFFFFF7F8B54A00430244004D02C00FA4
:102AA000240E061C9B09120EC90FAD09FF2A00D186
:102AB00075E001277940884250D0A01A002800DC38
:102AC0008FE0002A1ED1002D00D075E05A0704D0F7
:102AD0000F221A40042A00D0043380220120D2049D
:102AE0001A403040002A32D00134FF2C00D184E05B
:102AF0009B015B0AE4B25B02E4055B0A2343C00767
:102B00001843F8BDFF2CE1D08022D20415431B28C6
:102B10007ADD01255B1B5A015DD59B019F09381C9D
:102B200002F04AF805388740844269DC001B1F2404
:102B30003A1C431C201ADA408740131C7C1EA74114
:102B400000243B43C2E7131E45D100230020DB08CD
:102B5000FF2C28D05B025B0AE4B2CCE7A11A002963
:102B60005BDD002A2ED0FF2CB0D08022D20415438A
:102B70001B2974DC2F1C2022CF40511A8D40691E66
:102B80008D413D435B195A0125D50134FF2C74D08A
:102B900001217E4A194013405B080B4396E7002D44
:102BA00000D088E785E7002B27D08022D20313438B
:102BB0005B025B0AFF249EE701380028AAD0FF2CA5
:102BC000A5D183E7002D00D180E701390029D9D0B4
:102BD000FF2CCDD17AE75A0700D079E701203040A9
:102BE000B5E7002825D1621CD2B2012A55DD5F1B52
:102BF0007A012DD5EF1A0E1C91E7FF2400237AE706
:102C0000624B241A3B4061E7291C2022C140101A64
:102C10008540681E85410D437CE7002946D1621C32
:102C2000D1B201292BDDFF2A26D0EB185B08141C3A
:102C30004CE7002C15D0FF2A1AD08024E40440422F
:102C400023431B284DDD0123EB1A141C0E1C62E7E5
:102C5000002F00D063E700230020002477E7012540
:102C600090E7002B39D0C0430028EDD0FF2AE8D1EF
:102C70002B1CFF240E1C29E7FF24002367E7002CF0
:102C80005AD1002B7FD0002D00D11FE75B195A01CC
:102C9000A1D53E4A0134134018E7002C15D1002B72
:102CA0002FD1002D5ED02B1C0E1C0FE7002C21D144
:102CB000002B54D0C943002904D0FF2A4CD01B2933
:102CC00058DD01235B19141C5DE7002B23D1002D77
:102CD0004BD02B1C0E1CFF24F8E62B1C141C0E1CC6
:102CE000F4E61E1C2024C640201A8340581E83414F
:102CF0003343A9E7FF2A2FD08024E4044942234329
:102D0000DDE7002D00D1E1E65A1B500100D41AE79F
:102D1000EB1A0E1CDAE6FF24002D00D1D6E6802245
:102D2000DB08D203134204D0ED08154201D12B1C5D
:102D30000E1CDB00FF24C9E6002B0DD0FF24002D64
:102D400000D1C3E68022DB08D2031342F1D0ED08A4
:102D50001542EED12B1CECE72B1CFF24B6E62B1CF6
:102D6000141CB3E6231C0020F1E6802300209B0402
:102D7000FF24ECE61F1C2024CF40611A8B40591E13
:102D80008B413B439EE72B1CA0E6C046FFFFFFFBA9
:102D900070B5041E39D0C50F00D04442201C01F08C
:102DA0000BFF9E23261C1B1A962B07DC082801DD2F
:102DB000083884406402640AD8B21EE0992B0ADD08
:102DC0000522211C121AD1400A1C011C1B318E4005
:102DD000711E8E411643052801DD421F96400F4C9F
:102DE0003440720704D00F221640042E00D0043461
:102DF00062010ED4A401640AD8B26402C005640A58
:102E0000ED0704432C43201C70BD00250020002446
:102E1000F3E7024B1C409F231B1AEBE7FFFFFFFB6E
:102E2000F0B5454657464E4694464C000A03C90F36
:102E3000E0B488460E1C1903470FC500480A6146D6
:102E4000490F01436046520A1743C0005A00640DFF
:102E5000520DDB0F8446984500D1A7E0A01A002848
:102E600000DC01E1002A3DD163460B4300D0D4E0F1
:102E70006B0700D188E00F232B40042B00D183E0A7
:102E80002A1DAA42AD4180236D427F191B043B409D
:102E90004646151C002B00D17CE0CC4B01349C42F3
:102EA00000D1FDE03A1CCA4BED081A4050076405FA
:102EB00052020543120B640D002112030B0D1B057A
:102EC0006405120B1A436308C24CF60714401C43F6
:102ED000640064083443281C211C1CBC904699469D
:102EE000A246F0BDB94B9C42C2D080231B041943BB
:102EF000382800DDECE01F2800DD21E120220E1C37
:102F00006346121A9640C340334366469640321CCD
:102F1000561EB24113430A1CC240EB1A9D42B641F1
:102F20001D1CBA1A7642971B3B0200D497E07A0226
:102F3000560A002E00D1B6E0301C01F03DFE031C05
:102F4000083B1F2B00DDB7E09E40371C28262A1CBB
:102F5000361AF240161C9D403E439C4200DDB2E012
:102F60001C1B621C1F2A00DDD8E01F23291C1C1B10
:102F7000331CA540A340D1406C1EA541D640194347
:102F80000D43371C002473E780231B043B40464657
:102F900000D082E78D4BED0878070543FA089C4284
:102FA00032D012036405120B640D85E7A31A002BBF
:102FB00000DC94E0002A3CD0844A944200D157E7D8
:102FC000802212041143382B00DC05E163461943CB
:102FD000481E81410022C8B24019A8429B41051CED
:102FE000D2195B42D7183B0239D5784B01349C4249
:102FF00000D14CE10120764A6B083A402840184342
:10300000D5070543570833E72B1C134348D08023CB
:103010001B031A431203120B4EE70138002878D124
:103020006346EE1AB5429B417A1A5B42D71A351CA9
:103030007AE7021C0A4300D11AE7013B002B00D0BB
:10304000F2E04019A8429B41CA195B42D718051CFF
:10305000C9E7131C334300D118E1171C351C464641
:103060006B0700D007E795E700287AD1621C52056C
:10307000520D012A00DCFBE06246AA1A9542B641D5
:103080009146781A7242861A320200D493E0624660
:10309000551BAC458041CF1B40423E1A984648E73D
:1030A0000022002508E7281C01F086FD2030031CC3
:1030B000083B1F2B00DC47E7283885402E1C0025E5
:1030C0009C4200DC4CE7424AE41A1640371CCFE62B
:1030D000634619434B1E99410022CBB21DE7002BDA
:1030E00000D0F2E0601C43055B0D012B00DCA4E086
:1030F000364B984200D121E163465C19AC429B41BA
:10310000CF195B42FA186408D50725435708041CF9
:10311000AEE62E4B9C4200D0EAE6A9E6211C331C09
:103120001F39CB40191C202A00D182E03F231C1BF1
:10313000A64035436E1EB54100270D4300248EE79F
:10314000031C0E1C203BDE40202874D040231B1A99
:1031500099400B1C62461343591E8B410022334396
:10316000DBE6002C50D0194CA24200D1A8E080240C
:10317000240440422743382800DDD9E01F2800DD21
:1031800039E120243E1C241AA640B0462E1CA1463C
:10319000C640444626434C46A5406C1EA541C74048
:1031A00035436046451BCF1BAC45894149427F1AD8
:1031B000141C9846B8E64B464D46334300D0B8E65B
:1031C0000026002700240025E4E6C046FF07000093
:1031D000FFFF7FFFFFFF0F801F2B5BDC2022081CFF
:1031E000D21A9040814660469246D8404A461043E3
:1031F0008146524660469040021C501E824148461D
:1032000010430A1CDA40E7E63C1C2C4358D0C0436C
:10321000002851D16046451BAC458041CF1B404240
:103220003F1A141C98467FE68F4A944200D0CAE6A3
:103230001EE600267DE700238CE73B1C2B43002C79
:1032400000D0BDE0002B00D1F5E063460B4300D178
:103250000EE663465B19AB428041CA19404217181B
:103260003A0200D4FCE0814A1D1C17400134FFE5FE
:103270003A1C2A43002C51D1002A00D085E0624636
:103280000A4303D00F1C65469846F1E50026002747
:1032900000257FE6181C0A1C2038C240202B00D1D4
:1032A000A7E04020C01A8140081C63461843411E15
:1032B0008841104300228FE66B4CA24200D05AE7AF
:1032C0000F1C6546141C9846D2E5002C3AD1381CD8
:1032D000284371D0DB43002B18D0634882426BD067
:1032E000382B00DD9DE01F2B00DDA7E020203C1CDB
:1032F000C01A8440A1462C1C8246DC404846044348
:1033000050468540681E8541DF402543654465453C
:103310009B417F185B42FF18141C64E6002A19D1F8
:1033200062460A4377D00F1C654698464E4C9FE58F
:103330003D436F1EBD410027EDB232E7041C00275C
:10334000002527E64848824236D0802000045B42B0
:103350000743C5E762460A4349D08024ED08780751
:10336000FA0824032843224209D0CE08264206D177
:1033700062464F07381CD20810439846321CD200D0
:10338000470F1743C500384C72E562460A4300D127
:103390006EE56246AE1AB5429241781A5242821ADE
:1033A000100200D455E66246551BAC458041CA1B4D
:1033B0004042171A98465BE50F1C6546141C57E5FA
:1033C000002B34D063460B4311D08024ED087807DE
:1033D000FA08240328432242D1D0CB082342CED17D
:1033E00062464F07381CD20810431A1CC7E71E4C10
:1033F0003EE5002059E7041C3E1C203CE640341CFE
:1034000020282BD04026301A87403D436F1EBD41F7
:1034100000272543C5E680270026FF03124C002520
:10342000B8E53D436F1EBD410027EDB26EE70F1CAE
:1034300065460D4C1CE50F1C654619E51C1C381C27
:10344000203CE040041C202B0CD04020C31A9F409D
:103450003D436F1EBD410027254357E70027D4E7B2
:103460001D1CFCE50027F3E7FF070000FFFF7FFFBF
:10347000F0B55F4656464D464446F0B40F0387B05C
:1034800098464D003B0BCC0F061C924681469B464E
:103490006D0D01946BD0664B9D4235D080275B4605
:1034A0007F031F43F3009946624BFF00400F9C4689
:1034B00007430023BB46002665440093424617039A
:1034C0005000D20F53463F0B400D904600D172E0A2
:1034D000574A904267D080235B031F435346554AA7
:1034E0005B0FFF001F43944653460021DB006044FE
:1034F0004246624092462D1A0E430F2E00D9A1E09B
:103500004D48B600805987465B461E4300D076E0A2
:1035100000239B469946023308260093CEE799463E
:103520004346BB4601930091009B022B6BD1019B4C
:103530009A46002153460122002789461A403C4BF7
:1035400000213F030C0D24053F0B27433B4C1B057B
:1035500027401F437F00D2077F0817434846391C86
:1035600007B03CBC90469946A246AB46F0BD03432B
:103570003ED05B46002B00D19CE1584601F01CFB7D
:103580002823311C1B1A021C5F46D940083A974079
:103590000B1C96403B439B46B1460023284D00261A
:1035A0002D1A00938AE7524603213A43A0D10027FF
:1035B000002302219CE752463A4315D0002F00D148
:1035C00085E1381C01F0F8FA021C28215046891ABE
:1035D000131CC8405146083B99409F400B1C0743B1
:1035E00017480021801A83E70027002301217FE785
:1035F00000239B4699460133042600935EE703238C
:103600000C2600935AE7032B00D13CE2012B00D09B
:10361000BFE11A1C019B1A400021002300278946A4
:103620008EE700238027994600223F03004B87E75F
:10363000FF07000001FCFFFFD07A0008FFFF0F80AA
:103640000DFCFFFFBB4500D951E100D14CE14A46DA
:10365000039200225C469046013D180E3F0238431B
:103660001B020193030C994603041B0C4946061CDC
:10367000201C1F1C0093FFF705F8021C7A430290E0
:103680004946201C171CFFF783F8039B09041B0CF9
:1036900019438F420CD9029B8919013B8E4200D9F4
:1036A00052E18F4200D84FE1029B8919023B0293FD
:1036B000CC1B201C4946FEF7E5FF009F834647438D
:1036C0004946201CFFF764F8039A0B041404240CE9
:1036D00023439F420DD95A469B19013A9E4200D975
:1036E00030E19F4200D82DE10222524294469B19BC
:1036F000E344029ADB1B17045A463A439346019C63
:10370000170C220C101C04925A4611042204120CAD
:10371000141C090C7C4305924A43414347436118FA
:10372000100C09188C4203D980204002844667445B
:103730000C0C12040804120C3C198118A34200D28C
:10374000E5E000D1DFE01F1B43465C1AA045924133
:103750005242BF1AB74200D10EE1381C4946FEF76B
:1037600091FF009B029043434946381C9846FFF75F
:103770000FF8230C0F041F43B8450CD9029BBF1947
:10378000013BBE4200D9FBE0B84500D8F8E0029BFF
:10379000BF19023B02934346FF1A4946381CFEF705
:1037A00071FF009B039043434946381C9846FEF73F
:1037B000EFFF24040904240C214388450CD9039B02
:1037C0008919013B8E4200D9DCE0884500D8D9E058
:1037D000039B8919023B03934346C91A029B039A30
:1037E0001B04059C1A43100C13049146221C049FD1
:1037F0001B0C5A4344437B437843E318170CDB19F3
:103800009C4203D980246402A44660441C0C120428
:103810001B04120C00199B18814200D296E000D1C3
:10382000FCE04A4601231A4391469B4BEB18002BC0
:1038300000DC99E04A4652070AD00F2249460A4066
:10384000042A05D0043149459241894652429344A5
:103850005A46D20106D55A46904B1A4080239346C9
:10386000DB00EB188E4A934200DD62E64A46594679
:10387000D208490711435A46894657025146012248
:103880005B053F0B5B0D0A405AE680205A46000359
:10389000024208D0074206D107433F0399463F0B37
:1038A0004246804B4CE65F4607433F033F0B221CDA
:1038B0007C4B45E601F080F9031C2030272800DC12
:1038C0005EE6083B9E400023B346994665E65046B7
:1038D00001F072F9021C2032272A00DC75E65746F7
:1038E0000838874000237BE6994500D2AFE65A4668
:1038F000594654084A46C8075208024303924A46AA
:10390000D2079046A9E60027884500D31CE7019F0F
:103910005A46BC46E044B845BF417F42BF19FF1834
:10392000013ABE4206D2BC425FD800D19FE03F1BA5
:10393000934609E7B742FAD1019B4345F3D9371BB8
:10394000934601E79346D4E60293B1E64A468919C5
:10395000013A8E4218D99146814200D061E7019A1E
:103960009A4200D05DE760E74F4F7F1B382F13DD91
:10397000012253461A404FE601235B42994654E721
:10398000029308E7039327E788423CD874D0914616
:1039900047E7019B9A4648E71F2F44DC434B4A46C2
:1039A0009C465B466544FA40AB4013434A46AA40F6
:1039B000151C6A1E95415A46FA402B43171C5A079C
:1039C00009D00F221A40042A05D01A1D9A429B41A1
:1039D0005B42FF18131C3A023ED5534601220021D8
:1039E0001A40002701238946AAE502235B429C4630
:1039F000019AE3449446E04490459B415B429B1905
:103A0000DF193F1BA0E6019F4A467C00BC42BF4134
:103A10007F42BF19023AC91901949CE7002B95D146
:103A2000002201929BE75A46214B5B1BDA40202F74
:103A300027D0204B9C465B466544AB4049460B4330
:103A4000591E8B411343072200271A4007D00F222B
:103A500000271A40042AB8D17A077F023F0BDB08FF
:103A600013439946012253461A40002368E5414515
:103A7000BBD89346002767E6019C9C42C3D391467E
:103A80006DE70023DAE780275B463F031F433F03D0
:103A90003F0B019A034B53E5FF030000FFFFFFFEBE
:103AA000FE070000FF07000002FCFFFF1E040000ED
:103AB000E2FBFFFF3E040000F0B55F464D46444682
:103AC0005646F0B41F035C00DB0F99461B4B0E03F8
:103AD0004D00C90F8446360B6D0D8B4690463F0B4B
:103AE000640D9D420CD0154B9C4210D00123A54281
:103AF00014D0181C3CBC90469946A246AB46F0BD7B
:103B0000311C01230143F4D10C4B9C42EED13A43CA
:103B10000123002AEDD10123A542EAD1BE42E8D11A
:103B2000C445E6D1CB4506D0002DE2D13043031C7D
:103B3000581E8341DDE70023DBE7C046FF07000096
:103B4000F0B5574645464E46E0B40F034E00C90F48
:103B50008A4632491D035C0084463F0B760D904631
:103B60002D0B640DDB0F8E420FD08C4239D0002E0E
:103B700010D13843414241418946002C27D12A4384
:103B800025D1002000290ED108E0391C01432ED197
:103B9000B44226D0002C0BD09A450DD05346594242
:103BA00001231943081C1CBC90469946A246F0BD4F
:103BB0002A43F3D09A45F1D1A642EFDC1ADA5046F7
:103BC00041424841012341421943081CEBE74A4660
:103BD000002AE1D058425841012241421143081CB9
:103BE000E1E7291C114302D1002EC2D0D4E7022004
:103BF0004042D8E7AF42D1D809D00020AF42D2D25C
:103C0000504641424841012340421843CBE7C44556
:103C1000C4D80020C445F3D3C5E7C046FF07000061
:103C2000F0B55F464D46444656468046F0B4061C05
:103C30000803000B84462C484C001F035D00C90F8D
:103C4000640D8B4691463F0B6D0DDB0F844212D005
:103C5000854225D0002C14D161460E437042464166
:103C6000002D35D0002E21D0584258410121434229
:103C70000B43181C0EE06146022031430AD1A542D5
:103C80000ED0002D12D13A4310D15B465942012388
:103C90001943081C3CBC90469946A246AB46F0BD71
:103CA000391C02201143F5D1002CD5D09B45ECD115
:103CB000AC42EADC05DBBC45E7D80FD00020BC45B0
:103CC000E8D2584641424841414201200843E1E7D9
:103CD0003A43C7D10020002EDCD1D6E7C845D4D85E
:103CE0000020C845EDD3D5E7FF070000F0B55F46DB
:103CF00056464D464446F0B4051C061C080387B0E2
:103D000099464F00030BCC0F92469B467F0D0194C2
:103D100067D06C4B9F4236D080205B4640031843EF
:103D2000C0006B0F1843684B83469C46002398469F
:103D3000EE00674400934B4649461D03C90F5B00E4
:103D400052462D0B5B0D894600D16EE05D498B42DA
:103D500064D080205C4940038C4600210543ED007F
:103D6000500F0543D20063444846FF187B1C9A4617
:103D7000009B604002900B430F2B00D9ACE05348EE
:103D80009B00C3589F465B461D4300D082E008233A
:103D9000009300239B46023300269846CBE7029B04
:103DA00001934346022B59D1012400250026019B93
:103DB0001C40444B00212D030A0D12052D0B154309
:103DC000434A1B0515401D436D00E4076D0825435C
:103DD000301C291C07B03CBC90469946A246AB4615
:103DE000F0BD2B434ED05B46002B00D185E15846F9
:103DF00000F0E2FE021C2823291C9B1A161C5846C0
:103E0000D940083EB0400B1CB54003439B462E1CD6
:103E10000023304F0093BF1A98468CE75146294340
:103E20002ED10025002202219EE75146294323D0AE
:103E3000002D00D154E1281C00F0BEFE031C2821F7
:103E40005046C91A1A1CC8405146083A914095403C
:103E50000A1C05431F480021C31A85E7032B00D124
:103E6000C2E1012B00D06DE14446019B00251C40BE
:103E7000E4B2002300269DE700250022012173E71C
:103E8000032171E70423009300239B46013300269E
:103E9000984650E70C230093093B98464BE7802552
:103EA00000242D030026074B84E74B46AB46161C27
:103EB0000193884675E7029BAB46161C0193884622
:103EC0006FE7C046FF07000001FCFFFF107B000802
:103ED000FFFF0F800DFCFFFF330C3604360C9C46B1
:103EE000331C140C1204120C53439846634653437C
:103EF0009946634663430193331C41466343090C6F
:103F00004B445B18994505D98020400281460199B0
:103F100049440191190C039141460904090C1B0401
:103F20005B1804932B0C9846331C2D04290C4B432F
:103F3000604600934346654658435E43009B4D43AD
:103F40001B0C9946AE194E448446B54203D98023D2
:103F50005B029946CC44350C2B1C03986344844681
:103F60000593009B36041B041B0CF3189C4460460D
:103F7000039058460504060C280C84465043351C13
:103F800081466046654344434846000C834672437D
:103F900014195C44A24203D98022520293465D4424
:103FA000220CAD184A461204120C24044046A418F0
:103FB00062464A4371434643604600964646704314
:103FC0008046100C84468844E044414505D9802150
:103FD00049028C46009961440091019803998446F6
:103FE000614499429B415B42994605984346844609
:103FF0001204120C1B049B1863449C46AB4683427C
:104000009B4140460A19CC44A2428941E344CC4535
:10401000B6415C46000C8046494276425B426418D9
:10402000334398448C428941AB459B4149425B42B2
:1040300019430D1C009B4544EE187602E50D2E43F6
:10404000B346049B56021E43731E9E415B46D20D2F
:10405000324366021643DB010AD50123334076085A
:104060001E435B46DB071E435B465B089B46574689
:10407000634BFB18002B5ADD720709D00F22324028
:10408000042A05D0321DB242B6417642B344161C12
:104090005A46D20106D55A465A4B1A4080239346B7
:1040A000DB00FB18584A934234DD0124029B0025B3
:1040B0001C400026554B7DE680205B4600030342F2
:1040C00008D0054206D105432D032D0B4C46161C86
:1040D0004E4B6FE65D4605432D032D0B4B4B69E6BA
:1040E000504600F069FD031C2033272B00DCA6E6B8
:1040F0005546083885400022ACE6281C00F05CFDDF
:10410000021C2032272A00DC75E60838854000268C
:10411000AB467DE65A46F608520716435A46012436
:104120005502029A5B052D0B5B0D144042E6384D9B
:10413000ED1B382D0ADD0124029B00251C400026C2
:10414000002337E6019B5746029391E71F2D25DC9C
:10415000304B321C9C466744BE405B46BB40371C1C
:10416000EA407E1EB74113433B431E1C5B46EB40B7
:104170001D1C730709D00F233340042B05D0331DBA
:10418000B342B6417642AD191E1C2B0220D5012444
:10419000029B00251C40002601230BE65A461E4BBD
:1041A000DB1BDA40131C202D1CD01C4A94465A46B7
:1041B0006744BA40171C3E43721E96411E430723B4
:1041C0000025334007D00F2300253340042BD6D1E0
:1041D0006B076D022D0B0124F6081E43029B1C4049
:1041E0000023E7E50027E6E780255B4601242D0351
:1041F0001D43019B2D0323401C1C2D0B034BD9E5B4
:10420000FF030000FFFFFFFEFE070000FF070000A6
:1042100002FCFFFF1E040000E2FBFFFF3E04000063
:10422000F0B54D4644465F465646F0B40E1C111C90
:104230003203520A470F1743C5001A035800DB0F19
:104240009946520A4B0F83B01A43CB000193CF4BD0
:104250007400F60F640DB046400D984200D1E8E0BE
:104260000123494659400B1C9E4200D1B1E0261A59
:10427000002E00DC1CE1002842D1131C01990B43E5
:1042800000D0E6E06B0700D18EE00F232B40042B1B
:1042900000D189E02A1DAA42AD4180230126414672
:1042A0006D427F191B043B400E40151C002B00D1B2
:1042B00083E0B64B01349C4200D116E13A1CB44B6A
:1042C000ED081A405007640552020543120B640DB5
:1042D000002112030B0D1B056405120B1A43630822
:1042E000AC4CF60714401C43640064083443281C9B
:1042F000211C03B03CBC90469946A246AB46F0BD9B
:10430000A24B9C42BED080231B041A43382E00DDF2
:1043100003E11F2E00DD3FE12020831B9946131C83
:1043200049468B409C46019B6046F34003430198FD
:10433000F2408840011C481E81410B43EB1A9D420C
:1043400080411D1CBA1A4042171A3B0200D4A8E053
:104350007A02560A002E00D1CAE0301C00F02CFC74
:10436000031C083B1F2B00DDCBE02822291C121A5E
:10437000D1409E400A1C9D4032439C4200DDC8E073
:104380001C1B671C1F2F00DDEDE01F23291C1C1BBD
:10439000131CA540A340F9406C1EA541FA401943E7
:1043A0000D43171C00246DE78023012642461B04A1
:1043B0003B401640002B00D07BE7744BED0878079C
:1043C0000543FA089C423BD012036405120B640DAE
:1043D0007EE7231A9A46002B00DCA5E0002844D093
:1043E0006A48844200D14DE78020000402435346CE
:1043F000382B00DC1CE1019B1A43511E8A41D1B2CB
:1044000000224919A94280410D1CD21940421718B7
:104410003B0246D55D4B01349C4200D169E101204D
:104420005B4A6B083A4028401843D50705435708B4
:1044300028E7131C01990B4300D111E74B4613E702
:104440002B1C134351D080231B031A431203120B5E
:104450003EE7013E002E00D080E0691A8D429B416C
:10446000BA1A5B42D71A0D1C6FE7101C019B184348
:1044700000D107E701235B429C46E2445346002BF0
:1044800000D002E1019BD2195919A9429B415B421C
:10449000D7180D1CBCE76346034300D128E1071C75
:1044A00065466B0700D0F0E6012643461E4084E7D0
:1044B000002E00D081E0601C4005400D012800DC8A
:1044C00007E10199681A84466545B641B81A7642F3
:1044D000861B300200D4A1E08C464D1BAC458941BF
:1044E000D21B4942561A984634E700220025EFE6CF
:1044F000281C00F061FB2030031C083B1F2B00DC54
:1045000033E7021C283A95402A1C00259C4200DC17
:1045100036E71F4FE41A1740B4E6019B1A43511EB9
:104520008A41D3B2002209E7002B00D001E1601CD0
:1045300043055B0D012B00DCB0E0144B984200D129
:104540001EE1019BD2195919A9429B415B42D21825
:104550004908D5070D435708041C93E60B4B9C42B2
:1045600000D0D3E68EE6211C131C1F39CB40191C4A
:10457000202F00D18EE03F231C1BA24015436A1E52
:10458000954100270D4300248BE7C046FF0700003C
:10459000FFFF7FFFFFFF0F80331C101C203BD84024
:1045A000202E79D040239B1B9A40131C019A134361
:1045B000591E8B4100220343C0E6002C53D0C74C48
:1045C000A04200D1B0E080247142894624042743F0
:1045D0004946382900DDCDE01F2900DD59E12024BE
:1045E0003E1C611A8E408A46B04649462E1CCE407B
:1045F0005146B4468D4064464646494626436C1EA5
:10460000A541CF4035430199D71B8C464D1BAC4586
:1046100092415242BF1A041C984696E6634665468C
:10462000334300D096E60026002700240025C4E688
:104630001F2B61DC2020C31A9B46131C59468B405C
:1046400051469946019BCB409C464B4660460343EE
:104650009C465B46019999406346481E8141194337
:104660005346DA40CDE63C1C2C435DD0F1438946ED
:10467000002955D10199D21B8C464D1BAC4589416F
:104680004942571A041C98465FE69448844200D079
:10469000ADE6F7E5002271E7002387E73B1C2B43DB
:1046A000002C00D0DAE0002B00D113E1131C01999B
:1046B0000B4300D1E6E54919A9429B41D2195B425F
:1046C000D7183B0200D421E1854B0D1C1F40041C70
:1046D000D8E5381C2843002C40D1002800D083E0C6
:1046E000101C0199084303D0171C0D1C9846C9E5FE
:1046F00000260027002560E65046131C2038C340E2
:10470000181C5346202B00D1C1E0402351465B1AB0
:104710009A40019911434A1E91410022014370E6DB
:104720006E4CA04200D053E7171C019D041C984614
:10473000A8E5002C28D13C1C2C4300D18AE0DB43A7
:104740009A46002B00D082E0019BD2199C4665441A
:104750009D42894149425718041C59E600285BD103
:10476000101C0199084300D1A4E0171C0D1C9846A9
:104770005A4C87E53D436F1EBD410027EDB242E72D
:10478000041C0027002518E6544CA04262D0534672
:1047900080245B429A46240427435346382B00DD8D
:1047A0008EE01F2B00DD9DE02024E31A9B463B1C7E
:1047B00059468B40514699462B1CCB409C464B4654
:1047C000644623439C465B469D4063466C1EA54160
:1047D000CF401D43019BBF189C4665449D429241BA
:1047E0005242BF18041C13E6101C0199084300D163
:1047F00048E5681A844685428041BE1A4042301A14
:10480000060200D447E68C464D1BAC458941D21BBD
:104810004942571A984635E5101C0199084334D08F
:1048200080247807ED08FF0824032843274208D096
:10483000D608264205D1C90852070A43101C371C66
:104840009846FF00420F1743C500244C1AE5234C3D
:10485000A042A2D1171C019D041C13E5002B35D0EA
:10486000131C01990B4310D080247807ED08FF0832
:10487000240328432742E4D0D3082342E1D1C908C6
:1048800052070A43101C1F1CDBE7144CFAE40022F9
:104890003FE74C463E1C203CE6404946341C20295C
:1048A00032D04026761AB7403D436F1EBD410027E7
:1048B0002543A8E680270026FF03084C00257CE559
:1048C0003D436F1EBD410027EDB283E7171C019DDC
:1048D000024CD7E4171C019DD4E4C046FF0700003A
:1048E000FFFF7FFF54463B1C203CE3401C1C53460B
:1048F000202B0DD0402351465B1A9F403D436F1E35
:10490000BD410027254365E70027CDE70D1CC8E51D
:104910000027F3E738B5041E16D0C50F00D0444277
:10492000201C00F049F9174B1B1A0A2821DC021C35
:10493000211C153291400A1C0B21081AC4405B054A
:104940002403240B5B0D03E0002500230024002238
:104950000021101C24030A0D1205240B14430A4ADB
:104960001B0514401C436400ED0764082C43211C04
:1049700038BD0B3884405B052403240B5B0D0022FB
:10498000E6E7C0461E040000FFFF0F8010B5041EBE
:1049900010D000F011F9144A121A0A281ADC0B235D
:1049A000211C1B1AD94015300B03520584401B0BE8
:1049B000520D01E00022002300211B03201C1C0BD0
:1049C0000B0D1B052343094C1205234013435B00C9
:1049D000590810BD031C0B3B9C40520523031B0BC5
:1049E000520D0024E8E7C0461E040000FFFF0F80C0
:1049F0004200120E511C38B5C9B243025D0AC40F01
:104A0000012915DDE02189008C466D071B0B6244EE
:104A10000021281C0D0D2D052B431C4D52052B404C
:104A2000520813435B00E4075B082343191C38BD9D
:104A3000002A15D1002D1FD0281C00F0BDF80A282F
:104A40001DDC0B232A1C1B1ADA40131C021C153216
:104A500095400F4A1B03121A52051B0B520DD7E744
:104A6000002D06D080221B0B120313436D07094A49
:104A7000CEE7084A0023CBE700220023C8E7031C47
:104A80000B3B9D402B1C0025E3E7C046FFFF0F803A
:104A900089030000FF07000070B50B034D00440FB1
:104AA0006D0D5B0A23436C1C6405C90FC200640DC5
:104AB000012C2ADD3B4C2C19FE2C1ADC002C35DD98
:104AC0008001451EA841DB000343520F13435A07E0
:104AD00004D00F221A40042A00D004338022D204CA
:104AE0001A4027D00134FF2C03D09B015B0AE4B2AB
:104AF00001E0FF2400235B02E4055B0A23435B0023
:104B0000C9075B080B43181C70BD002D06D1134369
:104B10000ED100245B025B0AE4B2ECE71A43E8D052
:104B20008020DB0080040343FF24D0E717340CDA35
:104B300005230024DB08FF2CECD1002B2DD0802294
:104B4000D20313435B025B0AD5E780241648240492
:104B50002343401B1F280DDC144CA4466544AB4086
:104B60001C1C131CAB405D1EAB41C24023431343CE
:104B70000024ACE71E1C0E4C641BE640341C2028AD
:104B80000DD00C4884466544AB401D1C2A43531E7F
:104B90009A41131C2343002499E70023ABE7002527
:104BA000F4E7C04680FCFFFF9E03000082FCFFFF8D
:104BB0007E030000A2FCFFFF1C2101231B0498427E
:104BC00001D3000C10391B0A984201D3000A08399E
:104BD0001B09984201D30009043902A2105C401855
:104BE0007047C046040302020101010100000000F9
:104BF00000000000014B18687047C0468402002086
:104C00000E4B70B500251E1C0D4CE41AA410A542D5
:104C100004D0AB00F35898470135F8E7FBF750FA9A
:104C2000084B00251E1C084CE41AA410A54204D011
:104C3000AB00F35898470135F8E770BD187D0008C0
:104C4000187D0008187D0008187D0008031C8218D4
:104C5000934202D019700133FAE77047F0B58BB078
:104C6000141C1D1E129906DA802424062B191D1C03
:104C7000141C2D2300E000230B702023149E03221C
:104C80009E43462E07D0331C453B59424B41109959
:104C9000013ACB181093109B00920193139B221C96
:104CA000029308AB039309AB04932B1C00F02CFE7A
:104CB000071C472E02D1119BDB072CD5109BFB183C
:104CC0000793462E14D13B78302B0CD1201C291C85
:104CD00000220023FDF778FD002804D10123109A5B
:104CE0009B1A139A1360139B079A1B68D318079398
:104CF000201C291C00220023FDF766FD002801D09E
:104D0000079B0993099B079A934204D25A1C099264
:104D100030221A70F6E7381C099B159ADB1B1360CA
:104D20000BB0F0BDF7B52B23071C0C1C0270861CC2
:104D3000002901DA2D234C427B70092C1CDD6B46C7
:104D4000DD1D201C0A2102F0E5FB013D30312970F8
:104D5000201C0A2102F0F8FA041E092CF1DC013DA6
:104D600030342C706B460733301CAB4209D92B789A
:104D7000013533700136F5E73023E4183370B01C89
:104D80007470C01BFEBD0000F0B593B00C1C0892FF
:104D90000993189E051C01F041FD0368181C0B9334
:104DA00000F056FC0023216810930C90277E336896
:104DB0000722C90501D59B1800E0073393431A1C4D
:104DC000083232601A685B68A264E364A06CE16C2C
:104DD000FDF7F2FA012818D1A06CE16C0022002343
:104DE000FDF7F8FC002803D0231C2D2243331A7052
:104DF000B64B0A93472F01D9B54B0A930323226878
:104E0000236101339A43226012E0A06CE16CFDF74C
:104E1000D3FA266800280DD1AE4B0A93472F01D94B
:104E2000AD4B0A930323311C236101339943216065
:104E3000002680E080216068C900431C01D1062360
:104E400009E0A26CE36C672F01D0472F04D1002842
:104E500000D0C0E1012363606368314300932323E2
:104E600021600191002106AA9B1802930FAB0393C6
:104E700010AB05930497A26CE36C0691281CFFF716
:104E8000EDFE20233A1C0A909A43472A07D10F9B34
:104E9000DA1C02DB626893422DDD023FFFB20F99FC
:104EA000652F12D8201C01393A1C50300F91FFF7A2
:104EB00039FF109A061C83182361012A02DC22683C
:104EC000D2072ED5013323612BE0662F14D16368FE
:104ED000002908DD2161002B02D12268D2071DD5EF
:104EE0000133CB1811E0002B03D1012221681142BC
:104EF00013D09A1C11E067270F9B1098834206DBA2
:104F000022682361D20709D50133236106E001221B
:104F1000002B01DC0221CA1A8218226100260F9B95
:104F2000A365232306AA9B181B78002B03D0231C00
:104F30002D2243331A70099B281C0093211C089BC7
:104F400011AA00F05FF9431C02D10120404256E152
:104F50002268530504D4281C08990A9A236916E18B
:104F6000652F00D8D4E0A06CE16C00220023FDF78F
:104F70002BFC00282BD00123281C0899574A099E96
:104F8000B047431CE1D00F9B109A934207DB236884
:104F9000DB0704D423689B0700D51AE113E1099EBF
:104FA000281C08990B9A0C9BB0470026431CCCD0B8
:104FB000109B013B9E42EDDA221C0123281C08991C
:104FC0001A32099FB847431CBFD00136F0E70F9B48
:104FD000002B2BDC0123281C0899404A099EB0476E
:104FE000431CB2D00F9B002B05D1109B002B02D18C
:104FF0002368DB07CED5099E281C08990B9A0C9BC9
:10500000B0470026431CA0D00F9B281C5B42089988
:105010009E4208DA221C01231A32099FB847431C1A
:1050200093D00136F0E70A9A109BB0E0109BA66D72
:105030009E4200DD1E1C002E01DC002314E0331C08
:10504000281C08990A9A099FB847431CF5D17CE7A8
:10505000221C0123281C08991A32099FB847431CB7
:1050600000D172E70D9B01330D93F343A26DDB1763
:105070000D993340D31A9942EADB0A9B9E180F9B85
:10508000109A93420EDB2368DB070BD4109B0A9A1D
:10509000D7180F9ABF1B9B1A9F4200DD1F1C002FC1
:1050A00009DC11E00C9B281C08990B9A099FB84752
:1050B000431CEBD149E7321C3B1C281C0899099E74
:1050C000B047431C00D140E7002315E0587B00089F
:1050D0005C7B0008607B0008647B0008687B00083C
:1050E000221C0123281C08991A32099EB047431C30
:1050F00000D12AE70A9B01330A930F9A109B9A1A50
:10510000FB43DB173B40D31A0A9A9A42E8DB41E79C
:10511000109B281C0899012B02DC01231A423CD069
:1051200001230A9A099FB847431C00D10DE70C9B45
:10513000281C08990B9A099FB847431C00D104E723
:10514000A06CE16C00230022FDF73EFB0023002849
:1051500012D10A9A109B0132013B281C08991DE0CC
:10516000221C0123281C08991A32099FB847431CA6
:1051700000D1EAE60A9B01330A93109B0A9A013B8D
:105180009A42EDDB221C281C331C08995032099EE0
:10519000B047431C00D0FDE6D7E60A9A099FB847FE
:1051A000431CEFD1D1E6221C0123281C0899193297
:1051B000099FB847431C00D1C7E60136E368119A3E
:1051C0009B1A9E42EFDB119BE068984217DA181C8D
:1051D00015E00026F2E73143216001912321009080
:1051E00006A8091802910FA9039110A905910021A1
:1051F00004970691281CFFF731FD0A9047E613B08B
:10520000F0BDC046F7B5171C01930A698B68009082
:105210000C1C934200DA131C221C3B6043321278B0
:10522000002A01D001333B6023689B0602D53B680E
:1052300002333B60062523681D401ED0231C4333E8
:105240001B785A1E9341226892061CD53020E11823
:105250004031C870211C5A1C45310978A2184032CF
:105260000233D1700FE0221C0123009801991932FA
:10527000089EB047431C0ED00135E3683A689B1A7C
:105280009D42F0DBDAE7221C009801994332089D29
:10529000A847431C02D10120404220E00623206899
:1052A000E1683A6803400025042B03D18D1AEB43D3
:1052B000DB171D40A3682269934201DD9B1AED189C
:1052C0000027AF420ADA221C0123009801991A3202
:1052D000089EB047431CDED00137F2E70020FEBD38
:1052E000F0B58BB006920A1C4332079305900492E6
:1052F0000A7E0C1C109B6E2A00D1A8E011D8632AEC
:1053000022D009D8002A00D1B2E0582A00D0C2E049
:1053100045310A707C4A4FE0642A1DD0692A1BD0AF
:10532000B9E0732A00D1A7E009D86F2A29D0702AE2
:1053300000D0B0E0202209680A43226037E0752AD5
:105340001FD0782A33D0A6E00E1C1A684236111DF1
:10535000196013683370A1E021681A68080606D442
:10536000490604D5111D19600023D55E02E0111D08
:1053700019601568002D3BDA2D23049A6D421370D5
:1053800036E021681A68080606D4490604D515686F
:10539000111D1960ADB202E0111D196015685A4B5C
:1053A000227E03930A276F2A1DD108271BE0221CA7
:1053B000782145321170554A19680392081D2268F8
:1053C00018600D68100602D4500600D5ADB2D307A0
:1053D00002D520231A4322601027002D03D1202359
:1053E00022689A432260231C002243331A7002E091
:1053F0000A27454B03936368A360002B03DB042259
:10540000216891432160002D02D1049E002B0ED013
:10541000049E281C391CFDF7BBF9039B013E5B5C15
:10542000281C3370391CFDF72DF9051EF1D1082F0A
:1054300009D12368DB0706D563682269934202DC41
:105440003023013E3370049B9B1B23612BE00968D2
:105450001A68080607D4490605D5111D1960136896
:10546000A28A1A8004E0111D1960136862691A602B
:105470000023049E236116E01A68111D1960166846
:105480000021301C626801F02FFA002801D0801B37
:105490006060636803E0261C42363270012323619A
:1054A0000023049A1370079B05980093211C069B08
:1054B00009AAFFF7A7FE431C02D10120404221E0C8
:1054C000236905980699321C079DA847431CF4D010
:1054D00023689B0705D4099BE068984212DA181CE0
:1054E00010E00025E368099A9B1A9D42F3DA221C1A
:1054F0000123059806991932079EB047431CDCD05A
:105500000135EFE70BB0F0BD6A7B00087B7B00083C
:105510000FB40B4B13B51C68002C05D0A369002BEE
:1055200002D1201C01F0E8F805AB201CA168049A08
:10553000019301F0ADFD16BC08BC04B01847C0468D
:105540008402002070B5051C0E1C002804D083695D
:10555000002B01D101F0D0F8AB69AC68002B02D16F
:10556000281C01F0C9F8324B9C4201D16C6808E05C
:10557000304B9C4201D1AC6803E02F4B9C4200D1E0
:10558000EC68A3891B0702D52369002B19D1281CBD
:10559000211C00F0BDF8002813D00120404245E056
:1055A0003178002B1BDAA269934211DA221C281CE5
:1055B00000F056F8013042424241D0B20028ECD10E
:1055C0000136A3683278013BA360002AE8D10CE0E1
:1055D00023681970236819780A2903D1E6E723683C
:1055E0001970236801332360EAE7002B17DAA269F8
:1055F000934208DB0A2322681370236819780A296A
:1056000011D1281C01E0281C0A21221C00F028F8D6
:10561000013042424241D0B2002806D0BDE70A2301
:10562000226813702368013323600A2070BDC046CE
:105630009C7B0008BC7B0008DC7B000808B5034BA2
:10564000011C1868FFF77EFF08BDC04684020020D9
:105650000023C25C0133002AFBD1581E70470000B2
:1056600070B5051C0E1C141C002804D08369002B87
:1056700001D101F041F8234B9C4201D16C6808E054
:10568000214B9C4201D1AC6803E0204B9C4200D1ED
:10569000EC68A369A360A3891B070AD52369002BC3
:1056A00007D023682269F6B2981A636998420FDB23
:1056B00008E0281C211C00F02BF80028F1D0012064
:1056C00040421DE0281C211C00F0A8FF0028F6D154
:1056D000A3680130013BA36023685A1C22601E703E
:1056E0006369984205D0A389301CDB0708D50A2ED0
:1056F00006D1281C211C00F091FF0028DFD1301CAE
:1057000070BDC0469C7B0008BC7B0008DC7B0008A9
:10571000354B70B51D68061C0C1C002D05D0AB69FF
:10572000002B02D1281C00F0E7FF304B9C4201D136
:105730006C6808E02E4B9C4201D1AC6803E02D4B15
:105740009C4200D1EC68A3899AB2110723D4D106F8
:1057500007D409220120326037321343A38140422B
:1057600040E0530713D5616B002908D0231C443354
:10577000994202D0301C01F0C5FB00236363242250
:10578000A3899343A38100236360236923600822D4
:10579000A3891343A3812369002B0BD1A023A289E2
:1057A0009B00134080229200934203D0301C211CA6
:1057B00001F038F80123A289134005D00023A3602B
:1057C00063695B42A36103E0910700D46369A3604E
:1057D00000202369834205D1130603D540231A43D1
:1057E000A281013870BDC046840200209C7B000865
:1057F000BC7B0008DC7B0008F0B503690C6989B04C
:105800000026A3427CDB0B1C013C1433A500039350
:105810005B190493031C143301935D19049B0791D6
:105820001B680290591C28680593FCF72BFF071E84
:10583000B74235D0039B01989C460596634604CB3E
:1058400091B27943120C7A4371180E0C9C46B3182E
:10585000069302881E0C059B89B2D2180368521A5F
:10586000190C6B461B8BCB1A11145B18191492B2CE
:105870001B041A43049B059104C06345DED22B68C8
:10588000002B0DD1231C019A043D954203D8029AA6
:105890001C1C136104E02A68002AF8D1013BF2E7DE
:1058A0000298079901F046FA002828DB00200199A8
:1058B000039A013720CA0B881818ABB2C31A0868BC
:1058C0002D0C000C451B1E14AD1928149BB22D0481
:1058D0002B4308C1049B9342ECD2019AA300D31836
:1058E0001A68002A0BD1019A043B934202D8029B0A
:1058F0001C6104E01A68002AF9D1013CF3E73E1C60
:10590000301C09B0F0BD0000F0B5161C1F1C446A25
:105910009BB00890239D06960797002C08D1102075
:1059200000F0D8FF089B5862446084600460C46043
:10593000089B5B6A196800290BD05A6801239340C1
:105940004A608B60089801F01BF80022089B5B6A94
:105950001A60079B002B05DA01232B607B005B0894
:10596000079301E000232B60079CC64B221C179372
:105970001A409A4219D1C44B229A1360069AC34B1B
:10598000002A02D1240300D1C14B249A181C002AFA
:1059900001D100F0B6FDD978DA1C002900D005321B
:1059A0002499181C0A6000F0ACFD069E079F002297
:1059B000301C391C0023FCF707FF051E0ED0012305
:1059C000229A1360B34B249A181C002A01D100F0CC
:1059D00098FDB14A24990A6000F093FD19AB009339
:1059E00018AB01930898321C3B1C01F029FA6100A6
:1059F0000A90490D09D03803A84C000B0443A8486D
:105A0000321C231C0E1816951CE0189B199A9E1820
:105A1000A44B9E4209DBA44BF018069BC340181C04
:105A2000A24B9B1B9C40204304E0A148069B801B8B
:105A30008340181CFEF7AAFF9E4C021C0B19012183
:105A4000013E1691101C191C00229B4BFEF7E8FB2F
:105A50009A4A9B4BFEF74AF99A4A9B4BFDF7E0F9AD
:105A6000041C301C0D1CFEF755FF984A984BFEF79E
:105A70003DF9021C0B1C201C291CFDF7D1F9041C4C
:105A80000D1C01F051FD291C03900022201C002355
:105A9000FCF7A0FE00280DD00398FEF73BFF021C88
:105AA0000B1C201C291CFCF78FFE43424341039A28
:105AB000D31A039301231393039B162B11D8854A02
:105AC000DB00D31818685968069A079BFCF796FE06
:105AD000002805D0039B013B03930023139300E0B0
